{
    "contractName": "TokenBank",
    "abi": [
        {
            "inputs": [
                {
                    "internalType": "address",
                    "name": "dfil_",
                    "type": "address"
                }
            ],
            "stateMutability": "nonpayable",
            "type": "constructor"
        },
        {
            "anonymous": false,
            "inputs": [
                {
                    "indexed": true,
                    "internalType": "address",
                    "name": "account",
                    "type": "address"
                },
                {
                    "indexed": false,
                    "internalType": "uint256",
                    "name": "amount",
                    "type": "uint256"
                }
            ],
            "name": "InDfil",
            "type": "event"
        },
        {
            "anonymous": false,
            "inputs": [
                {
                    "indexed": true,
                    "internalType": "address",
                    "name": "account",
                    "type": "address"
                },
                {
                    "indexed": false,
                    "internalType": "uint256",
                    "name": "amount",
                    "type": "uint256"
                }
            ],
            "name": "OutDfil",
            "type": "event"
        },
        {
            "anonymous": false,
            "inputs": [
                {
                    "indexed": true,
                    "internalType": "address",
                    "name": "account",
                    "type": "address"
                }
            ],
            "name": "Reward",
            "type": "event"
        },
        {
            "anonymous": false,
            "inputs": [
                {
                    "indexed": true,
                    "internalType": "bytes32",
                    "name": "role",
                    "type": "bytes32"
                },
                {
                    "indexed": true,
                    "internalType": "bytes32",
                    "name": "previousAdminRole",
                    "type": "bytes32"
                },
                {
                    "indexed": true,
                    "internalType": "bytes32",
                    "name": "newAdminRole",
                    "type": "bytes32"
                }
            ],
            "name": "RoleAdminChanged",
            "type": "event"
        },
        {
            "anonymous": false,
            "inputs": [
                {
                    "indexed": true,
                    "internalType": "bytes32",
                    "name": "role",
                    "type": "bytes32"
                },
                {
                    "indexed": true,
                    "internalType": "address",
                    "name": "account",
                    "type": "address"
                },
                {
                    "indexed": true,
                    "internalType": "address",
                    "name": "sender",
                    "type": "address"
                }
            ],
            "name": "RoleGranted",
            "type": "event"
        },
        {
            "anonymous": false,
            "inputs": [
                {
                    "indexed": true,
                    "internalType": "bytes32",
                    "name": "role",
                    "type": "bytes32"
                },
                {
                    "indexed": true,
                    "internalType": "address",
                    "name": "account",
                    "type": "address"
                },
                {
                    "indexed": true,
                    "internalType": "address",
                    "name": "sender",
                    "type": "address"
                }
            ],
            "name": "RoleRevoked",
            "type": "event"
        },
        {
            "inputs": [],
            "name": "DEFAULT_ADMIN_ROLE",
            "outputs": [
                {
                    "internalType": "bytes32",
                    "name": "",
                    "type": "bytes32"
                }
            ],
            "stateMutability": "view",
            "type": "function"
        },
        {
            "inputs": [],
            "name": "dfil",
            "outputs": [
                {
                    "internalType": "contract IDFIL",
                    "name": "",
                    "type": "address"
                }
            ],
            "stateMutability": "view",
            "type": "function"
        },
        {
            "inputs": [],
            "name": "getRewardCoins",
            "outputs": [
                {
                    "internalType": "address[]",
                    "name": "",
                    "type": "address[]"
                }
            ],
            "stateMutability": "view",
            "type": "function"
        },
        {
            "inputs": [
                {
                    "internalType": "bytes32",
                    "name": "role",
                    "type": "bytes32"
                }
            ],
            "name": "getRoleAdmin",
            "outputs": [
                {
                    "internalType": "bytes32",
                    "name": "",
                    "type": "bytes32"
                }
            ],
            "stateMutability": "view",
            "type": "function"
        },
        {
            "inputs": [
                {
                    "internalType": "bytes32",
                    "name": "role",
                    "type": "bytes32"
                },
                {
                    "internalType": "uint256",
                    "name": "index",
                    "type": "uint256"
                }
            ],
            "name": "getRoleMember",
            "outputs": [
                {
                    "internalType": "address",
                    "name": "",
                    "type": "address"
                }
            ],
            "stateMutability": "view",
            "type": "function"
        },
        {
            "inputs": [
                {
                    "internalType": "bytes32",
                    "name": "role",
                    "type": "bytes32"
                }
            ],
            "name": "getRoleMemberCount",
            "outputs": [
                {
                    "internalType": "uint256",
                    "name": "",
                    "type": "uint256"
                }
            ],
            "stateMutability": "view",
            "type": "function"
        },
        {
            "inputs": [],
            "name": "getTotal",
            "outputs": [
                {
                    "internalType": "uint256",
                    "name": "",
                    "type": "uint256"
                }
            ],
            "stateMutability": "view",
            "type": "function"
        },
        {
            "inputs": [
                {
                    "internalType": "address",
                    "name": "account",
                    "type": "address"
                }
            ],
            "name": "getUserBalance",
            "outputs": [
                {
                    "internalType": "uint256",
                    "name": "",
                    "type": "uint256"
                }
            ],
            "stateMutability": "view",
            "type": "function"
        },
        {
            "inputs": [
                {
                    "internalType": "bytes32",
                    "name": "role",
                    "type": "bytes32"
                },
                {
                    "internalType": "address",
                    "name": "account",
                    "type": "address"
                }
            ],
            "name": "grantRole",
            "outputs": [],
            "stateMutability": "nonpayable",
            "type": "function"
        },
        {
            "inputs": [
                {
                    "internalType": "bytes32",
                    "name": "role",
                    "type": "bytes32"
                },
                {
                    "internalType": "address",
                    "name": "account",
                    "type": "address"
                }
            ],
            "name": "hasRole",
            "outputs": [
                {
                    "internalType": "bool",
                    "name": "",
                    "type": "bool"
                }
            ],
            "stateMutability": "view",
            "type": "function"
        },
        {
            "inputs": [
                {
                    "internalType": "uint256",
                    "name": "amount",
                    "type": "uint256"
                }
            ],
            "name": "inDfil",
            "outputs": [],
            "stateMutability": "nonpayable",
            "type": "function"
        },
        {
            "inputs": [],
            "name": "outDfil",
            "outputs": [],
            "stateMutability": "nonpayable",
            "type": "function"
        },
        {
            "inputs": [
                {
                    "internalType": "address",
                    "name": "coin",
                    "type": "address"
                }
            ],
            "name": "removeRewardCoins",
            "outputs": [],
            "stateMutability": "nonpayable",
            "type": "function"
        },
        {
            "inputs": [
                {
                    "internalType": "bytes32",
                    "name": "role",
                    "type": "bytes32"
                },
                {
                    "internalType": "address",
                    "name": "account",
                    "type": "address"
                }
            ],
            "name": "renounceRole",
            "outputs": [],
            "stateMutability": "nonpayable",
            "type": "function"
        },
        {
            "inputs": [
                {
                    "internalType": "bytes32",
                    "name": "role",
                    "type": "bytes32"
                },
                {
                    "internalType": "address",
                    "name": "account",
                    "type": "address"
                }
            ],
            "name": "revokeRole",
            "outputs": [],
            "stateMutability": "nonpayable",
            "type": "function"
        },
        {
            "inputs": [],
            "name": "reward",
            "outputs": [],
            "stateMutability": "nonpayable",
            "type": "function"
        },
        {
            "inputs": [
                {
                    "internalType": "address",
                    "name": "coin",
                    "type": "address"
                }
            ],
            "name": "setRewardCoins",
            "outputs": [],
            "stateMutability": "nonpayable",
            "type": "function"
        },
        {
            "inputs": [
                {
                    "internalType": "bytes4",
                    "name": "interfaceId",
                    "type": "bytes4"
                }
            ],
            "name": "supportsInterface",
            "outputs": [
                {
                    "internalType": "bool",
                    "name": "",
                    "type": "bool"
                }
            ],
            "stateMutability": "view",
            "type": "function"
        }
    ],
    "bytecode": "60806040523480156200001157600080fd5b5060405162001441380380620014418339810160408190526200003491620001a8565b600280546001600160a01b0319166001600160a01b0383161790556200006360006200005d3390565b6200006a565b50620001da565b62000076828262000095565b600082815260016020526040902062000090908262000136565b505050565b6000828152602081815260408083206001600160a01b038516845290915290205460ff1662000132576000828152602081815260408083206001600160a01b03851684529091529020805460ff19166001179055620000f13390565b6001600160a01b0316816001600160a01b0316837f2f8788117e7eff1d82e926ec794901d17c78024a50270940304540a733656f0d60405160405180910390a45b5050565b60006200014d836001600160a01b03841662000156565b90505b92915050565b60008181526001830160205260408120546200019f5750815460018181018455600084815260208082209093018490558454848252828601909352604090209190915562000150565b50600062000150565b600060208284031215620001bb57600080fd5b81516001600160a01b0381168114620001d357600080fd5b9392505050565b61125780620001ea6000396000f3fe608060405234801561001057600080fd5b50600436106101165760003560e01c80637baf0d5c116100a2578063a217fddf11610071578063a217fddf14610261578063ca15c87314610269578063d547741f1461027c578063ef1db38a1461028f578063f378fe6a1461029757600080fd5b80637baf0d5c146101fd57806385765095146102285780639010d07c1461023b57806391d148541461024e57600080fd5b80632f2ff15d116100e95780632f2ff15d1461019357806336568abe146101a657806347734892146101b9578063775a25e3146101e25780637b8ec5e5146101ea57600080fd5b806301ffc9a71461011b57806307daa09a14610143578063228cb73314610158578063248a9ca314610162575b600080fd5b61012e610129366004610f59565b6102aa565b60405190151581526020015b60405180910390f35b61014b6102d5565b60405161013a9190610f83565b6101606102e6565b005b610185610170366004610fd0565b60009081526020819052604090206001015490565b60405190815260200161013a565b6101606101a1366004611005565b6103ad565b6101606101b4366004611005565b6103d7565b6101856101c7366004611031565b6001600160a01b031660009081526006602052604090205490565b600554610185565b6101606101f8366004611031565b61045a565b600254610210906001600160a01b031681565b6040516001600160a01b03909116815260200161013a565b610160610236366004611031565b6104d3565b61021061024936600461104c565b610562565b61012e61025c366004611005565b610581565b610185600081565b610185610277366004610fd0565b6105aa565b61016061028a366004611005565b6105c1565b6101606105e6565b6101606102a5366004610fd0565b6107b5565b60006001600160e01b03198216635a05180f60e01b14806102cf57506102cf82610997565b92915050565b60606102e160036109cc565b905090565b60005b6102f360036109d9565b811161037f576103046003826109e3565b6001600160a01b0316636353586b336040516001600160e01b031960e084901b1681526001600160a01b039091166004820152602401600060405180830381600087803b15801561035457600080fd5b505af1158015610368573d6000803e3d6000fd5b50505050808061037790611084565b9150506102e9565b5060405133907f57488064f1b56247ef7f5b82afeb370a20fd2967bedd713db4cd87fcd4f8972690600090a2565b6000828152602081905260409020600101546103c8816109ef565b6103d283836109f9565b505050565b6001600160a01b038116331461044c5760405162461bcd60e51b815260206004820152602f60248201527f416363657373436f6e74726f6c3a2063616e206f6e6c792072656e6f756e636560448201526e103937b632b9903337b91039b2b63360891b60648201526084015b60405180910390fd5b6104568282610a1b565b5050565b610465600033610581565b6104c85760405162461bcd60e51b815260206004820152602e60248201527f546f6b656e42616e6b3a206d75737420686176652064656661756c742061646d60448201526d1a5b881c9bdb19481d1bc81cd95d60921b6064820152608401610443565b610456600382610a3d565b6104de600033610581565b6105445760405162461bcd60e51b815260206004820152603160248201527f546f6b656e42616e6b3a206d75737420686176652064656661756c742061646d604482015270696e20726f6c6520746f2072656d6f766560781b6064820152608401610443565b61054f600382610a52565b1561055f57610456600382610a74565b50565b600082815260016020526040812061057a90836109e3565b9392505050565b6000918252602082815260408084206001600160a01b0393909316845291905290205460ff1690565b60008181526001602052604081206102cf906109d9565b6000828152602081905260409020600101546105dc816109ef565b6103d28383610a1b565b3360009081526006602052604090205461063a5760405162461bcd60e51b81526020600482015260156024820152742a37b5b2b72130b7359d1030b6b7bab73a1032b93960591b6044820152606401610443565b60005b61064760036109d9565b81116106d3576106586003826109e3565b6001600160a01b0316636353586b336040516001600160e01b031960e084901b1681526001600160a01b039091166004820152602401600060405180830381600087803b1580156106a857600080fd5b505af11580156106bc573d6000803e3d6000fd5b5050505080806106cb90611084565b91505061063d565b5033600090815260066020526040812080549190556005546106f59082610a89565b6005556002546001600160a01b031663a9059cbb336040516001600160e01b031960e084901b1681526001600160a01b039091166004820152602481018490526044016020604051808303816000875af1158015610757573d6000803e3d6000fd5b505050506040513d601f19601f8201168201806040525081019061077b919061109d565b5060405181815233907fa850ad91dbd70caf12f2d735e8daca3daf3c85a4f316b0aa307986fb1455173e906020015b60405180910390a250565b600081116107fd5760405162461bcd60e51b81526020600482015260156024820152742a37b5b2b72130b7359d1030b6b7bab73a1032b93960591b6044820152606401610443565b60005b61080a60036109d9565b811161089d5761081b6003826109e3565b6001600160a01b031663c6685617336040516001600160e01b031960e084901b1681526001600160a01b03909116600482015260248101859052604401600060405180830381600087803b15801561087257600080fd5b505af1158015610886573d6000803e3d6000fd5b50505050808061089590611084565b915050610800565b506002546001600160a01b03166323b872dd336040516001600160e01b031960e084901b1681526001600160a01b03909116600482015230602482015260448101849052606401600060405180830381600087803b1580156108fe57600080fd5b505af1158015610912573d6000803e3d6000fd5b5050505061094581600660006109253390565b6001600160a01b0316815260208101919091526040016000205490610a95565b336000908152600660205260409020556005546109629082610a95565b60055560405181815233907f979f936992dc063cb242e10eae8efe1707cb0fd56cda58bba6efcb0dd0190411906020016107aa565b60006001600160e01b03198216637965db0b60e01b14806102cf57506301ffc9a760e01b6001600160e01b03198316146102cf565b6060600061057a83610aa1565b60006102cf825490565b600061057a8383610afd565b61055f8133610b27565b610a038282610b80565b60008281526001602052604090206103d29082610a3d565b610a258282610c04565b60008281526001602052604090206103d29082610a74565b600061057a836001600160a01b038416610c69565b6001600160a01b0381166000908152600183016020526040812054151561057a565b600061057a836001600160a01b038416610cb8565b600061057a82846110bf565b600061057a82846110d2565b606081600001805480602002602001604051908101604052809291908181526020018280548015610af157602002820191906000526020600020905b815481526020019060010190808311610add575b50505050509050919050565b6000826000018281548110610b1457610b146110e5565b9060005260206000200154905092915050565b610b318282610581565b61045657610b3e81610dab565b610b49836020610dbd565b604051602001610b5a92919061111f565b60408051601f198184030181529082905262461bcd60e51b825261044391600401611194565b610b8a8282610581565b610456576000828152602081815260408083206001600160a01b03851684529091529020805460ff19166001179055610bc03390565b6001600160a01b0316816001600160a01b0316837f2f8788117e7eff1d82e926ec794901d17c78024a50270940304540a733656f0d60405160405180910390a45050565b610c0e8282610581565b15610456576000828152602081815260408083206001600160a01b0385168085529252808320805460ff1916905551339285917ff6391f5c32d9c69d2a47ea670b442974b53935d1edc7fd64eb21e047a839171b9190a45050565b6000818152600183016020526040812054610cb0575081546001818101845560008481526020808220909301849055845484825282860190935260409020919091556102cf565b5060006102cf565b60008181526001830160205260408120548015610da1576000610cdc6001836110bf565b8554909150600090610cf0906001906110bf565b9050818114610d55576000866000018281548110610d1057610d106110e5565b9060005260206000200154905080876000018481548110610d3357610d336110e5565b6000918252602080832090910192909255918252600188019052604090208390555b8554869080610d6657610d666111c7565b6001900381819060005260206000200160009055905585600101600086815260200190815260200160002060009055600193505050506102cf565b60009150506102cf565b60606102cf6001600160a01b03831660145b60606000610dcc8360026111dd565b610dd79060026110d2565b67ffffffffffffffff811115610def57610def6111f4565b6040519080825280601f01601f191660200182016040528015610e19576020820181803683370190505b509050600360fc1b81600081518110610e3457610e346110e5565b60200101906001600160f81b031916908160001a905350600f60fb1b81600181518110610e6357610e636110e5565b60200101906001600160f81b031916908160001a9053506000610e878460026111dd565b610e929060016110d2565b90505b6001811115610f0a576f181899199a1a9b1b9c1cb0b131b232b360811b85600f1660108110610ec657610ec66110e5565b1a60f81b828281518110610edc57610edc6110e5565b60200101906001600160f81b031916908160001a90535060049490941c93610f038161120a565b9050610e95565b50831561057a5760405162461bcd60e51b815260206004820181905260248201527f537472696e67733a20686578206c656e67746820696e73756666696369656e746044820152606401610443565b600060208284031215610f6b57600080fd5b81356001600160e01b03198116811461057a57600080fd5b6020808252825182820181905260009190848201906040850190845b81811015610fc45783516001600160a01b031683529284019291840191600101610f9f565b50909695505050505050565b600060208284031215610fe257600080fd5b5035919050565b80356001600160a01b038116811461100057600080fd5b919050565b6000806040838503121561101857600080fd5b8235915061102860208401610fe9565b90509250929050565b60006020828403121561104357600080fd5b61057a82610fe9565b6000806040838503121561105f57600080fd5b50508035926020909101359150565b634e487b7160e01b600052601160045260246000fd5b6000600182016110965761109661106e565b5060010190565b6000602082840312156110af57600080fd5b8151801515811461057a57600080fd5b818103818111156102cf576102cf61106e565b808201808211156102cf576102cf61106e565b634e487b7160e01b600052603260045260246000fd5b60005b838110156111165781810151838201526020016110fe565b50506000910152565b7f416363657373436f6e74726f6c3a206163636f756e74200000000000000000008152600083516111578160178501602088016110fb565b7001034b99036b4b9b9b4b733903937b6329607d1b60179184019182015283516111888160288401602088016110fb565b01602801949350505050565b60208152600082518060208401526111b38160408501602087016110fb565b601f01601f19169190910160400192915050565b634e487b7160e01b600052603160045260246000fd5b80820281158282048414176102cf576102cf61106e565b634e487b7160e01b600052604160045260246000fd5b6000816112195761121961106e565b50600019019056fea2646970667358221220f6fc34e0a04bfed16de81413c917d64c8a1725655f5005f18bf15c89e89f362864736f6c63430008130033",
    "sourcePath": "c:/Users/84002/shared_project/contracts_rel/contracts/TokenBank.sol",
    "compiler": {
        "name": "solc",
        "version": "0.8.19+commit.7dd6d404"
    },
    "functionHashes": {
        "DEFAULT_ADMIN_ROLE()": "a217fddf",
        "dfil()": "7baf0d5c",
        "getRewardCoins()": "07daa09a",
        "getRoleAdmin(bytes32)": "248a9ca3",
        "getRoleMember(bytes32,uint256)": "9010d07c",
        "getRoleMemberCount(bytes32)": "ca15c873",
        "getTotal()": "775a25e3",
        "getUserBalance(address)": "47734892",
        "grantRole(bytes32,address)": "2f2ff15d",
        "hasRole(bytes32,address)": "91d14854",
        "inDfil(uint256)": "f378fe6a",
        "outDfil()": "ef1db38a",
        "removeRewardCoins(address)": "85765095",
        "renounceRole(bytes32,address)": "36568abe",
        "revokeRole(bytes32,address)": "d547741f",
        "reward()": "228cb733",
        "setRewardCoins(address)": "7b8ec5e5",
        "supportsInterface(bytes4)": "01ffc9a7"
    },
    "gasEstimates": {
        "creation": {
            "codeDepositCost": "939000",
            "executionCost": "infinite",
            "totalCost": "infinite"
        },
        "external": {
            "DEFAULT_ADMIN_ROLE()": "217",
            "dfil()": "2360",
            "getRewardCoins()": "infinite",
            "getRoleAdmin(bytes32)": "2537",
            "getRoleMember(bytes32,uint256)": "infinite",
            "getRoleMemberCount(bytes32)": "infinite",
            "getTotal()": "2381",
            "getUserBalance(address)": "2604",
            "grantRole(bytes32,address)": "infinite",
            "hasRole(bytes32,address)": "2740",
            "inDfil(uint256)": "infinite",
            "outDfil()": "infinite",
            "removeRewardCoins(address)": "infinite",
            "renounceRole(bytes32,address)": "infinite",
            "revokeRole(bytes32,address)": "infinite",
            "reward()": "infinite",
            "setRewardCoins(address)": "infinite",
            "supportsInterface(bytes4)": "infinite"
        }
    }
}