{
    "contractName": "TokenBankRewardKey",
    "abi": [
        {
            "inputs": [
                {
                    "internalType": "address",
                    "name": "tokenBank_",
                    "type": "address"
                },
                {
                    "internalType": "address",
                    "name": "rewardUNIToken_",
                    "type": "address"
                }
            ],
            "stateMutability": "nonpayable",
            "type": "constructor"
        },
        {
            "anonymous": false,
            "inputs": [
                {
                    "indexed": true,
                    "internalType": "address",
                    "name": "account",
                    "type": "address"
                },
                {
                    "indexed": false,
                    "internalType": "uint256",
                    "name": "amount",
                    "type": "uint256"
                }
            ],
            "name": "Reward",
            "type": "event"
        },
        {
            "anonymous": false,
            "inputs": [
                {
                    "indexed": true,
                    "internalType": "bytes32",
                    "name": "role",
                    "type": "bytes32"
                },
                {
                    "indexed": true,
                    "internalType": "bytes32",
                    "name": "previousAdminRole",
                    "type": "bytes32"
                },
                {
                    "indexed": true,
                    "internalType": "bytes32",
                    "name": "newAdminRole",
                    "type": "bytes32"
                }
            ],
            "name": "RoleAdminChanged",
            "type": "event"
        },
        {
            "anonymous": false,
            "inputs": [
                {
                    "indexed": true,
                    "internalType": "bytes32",
                    "name": "role",
                    "type": "bytes32"
                },
                {
                    "indexed": true,
                    "internalType": "address",
                    "name": "account",
                    "type": "address"
                },
                {
                    "indexed": true,
                    "internalType": "address",
                    "name": "sender",
                    "type": "address"
                }
            ],
            "name": "RoleGranted",
            "type": "event"
        },
        {
            "anonymous": false,
            "inputs": [
                {
                    "indexed": true,
                    "internalType": "bytes32",
                    "name": "role",
                    "type": "bytes32"
                },
                {
                    "indexed": true,
                    "internalType": "address",
                    "name": "account",
                    "type": "address"
                },
                {
                    "indexed": true,
                    "internalType": "address",
                    "name": "sender",
                    "type": "address"
                }
            ],
            "name": "RoleRevoked",
            "type": "event"
        },
        {
            "inputs": [],
            "name": "DEFAULT_ADMIN_ROLE",
            "outputs": [
                {
                    "internalType": "bytes32",
                    "name": "",
                    "type": "bytes32"
                }
            ],
            "stateMutability": "view",
            "type": "function"
        },
        {
            "inputs": [],
            "name": "TOKEN_BANK_REWARD_ROLE",
            "outputs": [
                {
                    "internalType": "bytes32",
                    "name": "",
                    "type": "bytes32"
                }
            ],
            "stateMutability": "view",
            "type": "function"
        },
        {
            "inputs": [
                {
                    "internalType": "address",
                    "name": "account",
                    "type": "address"
                }
            ],
            "name": "allRewardsOfUser",
            "outputs": [
                {
                    "internalType": "uint256[]",
                    "name": "",
                    "type": "uint256[]"
                }
            ],
            "stateMutability": "view",
            "type": "function"
        },
        {
            "inputs": [],
            "name": "getHistoryRewardRate",
            "outputs": [
                {
                    "internalType": "uint256[]",
                    "name": "",
                    "type": "uint256[]"
                }
            ],
            "stateMutability": "view",
            "type": "function"
        },
        {
            "inputs": [],
            "name": "getHistoryStakingTime",
            "outputs": [
                {
                    "internalType": "uint256[]",
                    "name": "",
                    "type": "uint256[]"
                }
            ],
            "stateMutability": "view",
            "type": "function"
        },
        {
            "inputs": [],
            "name": "getLastTime",
            "outputs": [
                {
                    "internalType": "uint256",
                    "name": "",
                    "type": "uint256"
                }
            ],
            "stateMutability": "view",
            "type": "function"
        },
        {
            "inputs": [
                {
                    "internalType": "bytes32",
                    "name": "role",
                    "type": "bytes32"
                }
            ],
            "name": "getRoleAdmin",
            "outputs": [
                {
                    "internalType": "bytes32",
                    "name": "",
                    "type": "bytes32"
                }
            ],
            "stateMutability": "view",
            "type": "function"
        },
        {
            "inputs": [
                {
                    "internalType": "bytes32",
                    "name": "role",
                    "type": "bytes32"
                },
                {
                    "internalType": "uint256",
                    "name": "index",
                    "type": "uint256"
                }
            ],
            "name": "getRoleMember",
            "outputs": [
                {
                    "internalType": "address",
                    "name": "",
                    "type": "address"
                }
            ],
            "stateMutability": "view",
            "type": "function"
        },
        {
            "inputs": [
                {
                    "internalType": "bytes32",
                    "name": "role",
                    "type": "bytes32"
                }
            ],
            "name": "getRoleMemberCount",
            "outputs": [
                {
                    "internalType": "uint256",
                    "name": "",
                    "type": "uint256"
                }
            ],
            "stateMutability": "view",
            "type": "function"
        },
        {
            "inputs": [
                {
                    "internalType": "bytes32",
                    "name": "role",
                    "type": "bytes32"
                },
                {
                    "internalType": "address",
                    "name": "account",
                    "type": "address"
                }
            ],
            "name": "grantRole",
            "outputs": [],
            "stateMutability": "nonpayable",
            "type": "function"
        },
        {
            "inputs": [
                {
                    "internalType": "bytes32",
                    "name": "role",
                    "type": "bytes32"
                },
                {
                    "internalType": "address",
                    "name": "account",
                    "type": "address"
                }
            ],
            "name": "hasRole",
            "outputs": [
                {
                    "internalType": "bool",
                    "name": "",
                    "type": "bool"
                }
            ],
            "stateMutability": "view",
            "type": "function"
        },
        {
            "inputs": [],
            "name": "lastUpdateTime",
            "outputs": [
                {
                    "internalType": "uint256",
                    "name": "",
                    "type": "uint256"
                }
            ],
            "stateMutability": "view",
            "type": "function"
        },
        {
            "inputs": [
                {
                    "internalType": "address",
                    "name": "account",
                    "type": "address"
                }
            ],
            "name": "outRecord",
            "outputs": [],
            "stateMutability": "nonpayable",
            "type": "function"
        },
        {
            "inputs": [
                {
                    "internalType": "address",
                    "name": "account",
                    "type": "address"
                },
                {
                    "internalType": "uint256",
                    "name": "amount",
                    "type": "uint256"
                }
            ],
            "name": "record",
            "outputs": [],
            "stateMutability": "nonpayable",
            "type": "function"
        },
        {
            "inputs": [
                {
                    "internalType": "bytes32",
                    "name": "role",
                    "type": "bytes32"
                },
                {
                    "internalType": "address",
                    "name": "account",
                    "type": "address"
                }
            ],
            "name": "renounceRole",
            "outputs": [],
            "stateMutability": "nonpayable",
            "type": "function"
        },
        {
            "inputs": [
                {
                    "internalType": "bytes32",
                    "name": "role",
                    "type": "bytes32"
                },
                {
                    "internalType": "address",
                    "name": "account",
                    "type": "address"
                }
            ],
            "name": "revokeRole",
            "outputs": [],
            "stateMutability": "nonpayable",
            "type": "function"
        },
        {
            "inputs": [
                {
                    "internalType": "address",
                    "name": "account",
                    "type": "address"
                }
            ],
            "name": "reward",
            "outputs": [],
            "stateMutability": "nonpayable",
            "type": "function"
        },
        {
            "inputs": [],
            "name": "rewardPerTokenStored",
            "outputs": [
                {
                    "internalType": "uint256",
                    "name": "",
                    "type": "uint256"
                }
            ],
            "stateMutability": "view",
            "type": "function"
        },
        {
            "inputs": [],
            "name": "rewardRate",
            "outputs": [
                {
                    "internalType": "uint256",
                    "name": "",
                    "type": "uint256"
                }
            ],
            "stateMutability": "view",
            "type": "function"
        },
        {
            "inputs": [],
            "name": "rewardUNIPerToken",
            "outputs": [
                {
                    "internalType": "uint256",
                    "name": "rewardUNI",
                    "type": "uint256"
                }
            ],
            "stateMutability": "view",
            "type": "function"
        },
        {
            "inputs": [],
            "name": "rewardUNIToken",
            "outputs": [
                {
                    "internalType": "contract IKey",
                    "name": "",
                    "type": "address"
                }
            ],
            "stateMutability": "view",
            "type": "function"
        },
        {
            "inputs": [],
            "name": "rewardUNITokenBase",
            "outputs": [
                {
                    "internalType": "uint256",
                    "name": "",
                    "type": "uint256"
                }
            ],
            "stateMutability": "view",
            "type": "function"
        },
        {
            "inputs": [],
            "name": "rewardUNITokenRate",
            "outputs": [
                {
                    "internalType": "uint256",
                    "name": "",
                    "type": "uint256"
                }
            ],
            "stateMutability": "view",
            "type": "function"
        },
        {
            "inputs": [
                {
                    "internalType": "uint256",
                    "name": "rewardRate_",
                    "type": "uint256"
                },
                {
                    "internalType": "uint256",
                    "name": "stakingTime_",
                    "type": "uint256"
                }
            ],
            "name": "setRewardRateAndStakingFinishTime",
            "outputs": [],
            "stateMutability": "nonpayable",
            "type": "function"
        },
        {
            "inputs": [
                {
                    "internalType": "uint256",
                    "name": "rate",
                    "type": "uint256"
                },
                {
                    "internalType": "uint256",
                    "name": "base",
                    "type": "uint256"
                }
            ],
            "name": "setRewardUNITokenRate",
            "outputs": [],
            "stateMutability": "nonpayable",
            "type": "function"
        },
        {
            "inputs": [],
            "name": "stakingFinishTime",
            "outputs": [
                {
                    "internalType": "uint256",
                    "name": "",
                    "type": "uint256"
                }
            ],
            "stateMutability": "view",
            "type": "function"
        },
        {
            "inputs": [
                {
                    "internalType": "bytes4",
                    "name": "interfaceId",
                    "type": "bytes4"
                }
            ],
            "name": "supportsInterface",
            "outputs": [
                {
                    "internalType": "bool",
                    "name": "",
                    "type": "bool"
                }
            ],
            "stateMutability": "view",
            "type": "function"
        },
        {
            "inputs": [],
            "name": "tokenBank",
            "outputs": [
                {
                    "internalType": "contract ITokenBank",
                    "name": "",
                    "type": "address"
                }
            ],
            "stateMutability": "view",
            "type": "function"
        },
        {
            "inputs": [
                {
                    "internalType": "address",
                    "name": "",
                    "type": "address"
                }
            ],
            "name": "userRewardsPerToken",
            "outputs": [
                {
                    "internalType": "uint256",
                    "name": "",
                    "type": "uint256"
                }
            ],
            "stateMutability": "view",
            "type": "function"
        }
    ],
    "bytecode": "608060405260016004556001600555426006553480156200001f57600080fd5b506040516200192138038062001921833981016040819052620000429162000215565b600280546001600160a01b038085166001600160a01b0319928316179092556003805492841692909116919091179055620000866000620000803390565b620000ba565b620000b27f50fb51e06ae3313af73ede6a40f547e8437f0d446219110bae8fbea948c778b683620000ba565b50506200024d565b620000c68282620000e5565b6000828152600160205260409020620000e0908262000186565b505050565b6000828152602081815260408083206001600160a01b038516845290915290205460ff1662000182576000828152602081815260408083206001600160a01b03851684529091529020805460ff19166001179055620001413390565b6001600160a01b0316816001600160a01b0316837f2f8788117e7eff1d82e926ec794901d17c78024a50270940304540a733656f0d60405160405180910390a45b5050565b60006200019d836001600160a01b038416620001a6565b90505b92915050565b6000818152600183016020526040812054620001ef57508154600181810184556000848152602080822090930184905584548482528286019093526040902091909155620001a0565b506000620001a0565b80516001600160a01b03811681146200021057600080fd5b919050565b600080604083850312156200022957600080fd5b6200023483620001f8565b91506200024460208401620001f8565b90509250929050565b6116c4806200025d6000396000f3fe608060405234801561001057600080fd5b50600436106101cf5760003560e01c806391d1485411610104578063ca15c873116100a2578063e5b6229611610071578063e5b62296146103ac578063eec83549146103cc578063f392d818146103f3578063f54942c5146103fb57600080fd5b8063ca15c8731461036a578063ceb406e41461037d578063d547741f14610390578063df136d65146103a357600080fd5b8063b578b0e5116100de578063b578b0e514610328578063b968a3a41461033b578063c66856171461034e578063c8f33c911461036157600080fd5b806391d1485414610305578063955d14cd14610318578063a217fddf1461032057600080fd5b806336568abe116101715780636d3c09d81161014b5780636d3c09d8146102b55780636ed73389146102be5780637b0a47ee146102d15780639010d07c146102da57600080fd5b806336568abe14610287578063544ec62d1461029a5780636353586b146102a257600080fd5b806319b0e96e116101ad57806319b0e96e14610233578063248a9ca31461023c5780632c8d6c101461025f5780632f2ff15d1461027457600080fd5b806301ffc9a7146101d4578063073e3362146101fc57806309ed4db714610213575b600080fd5b6101e76101e236600461133e565b610403565b60405190151581526020015b60405180910390f35b61020560055481565b6040519081526020016101f3565b610205610221366004611384565b600a6020526000908152604090205481565b61020560045481565b61020561024a36600461139f565b60009081526020819052604090206001015490565b61027261026d3660046113b8565b61042e565b005b6102726102823660046113da565b6104a5565b6102726102953660046113da565b6104ca565b610205610548565b6102726102b0366004611384565b610623565b61020560065481565b6102726102cc366004611384565b61062f565b61020560095481565b6102ed6102e83660046113b8565b61068d565b6040516001600160a01b0390911681526020016101f3565b6101e76103133660046113da565b6106ac565b6102056106d5565b610205600081565b6102726103363660046113b8565b6106e8565b6002546102ed906001600160a01b031681565b61027261035c366004611406565b610760565b61020560085481565b61020561037836600461139f565b610903565b6003546102ed906001600160a01b031681565b61027261039e3660046113da565b61091a565b61020560075481565b6103bf6103ba366004611384565b61093f565b6040516101f39190611430565b6102057f50fb51e06ae3313af73ede6a40f547e8437f0d446219110bae8fbea948c778b681565b6103bf610a4a565b6103bf610a56565b60006001600160e01b03198216635a05180f60e01b1480610428575061042882610a62565b92915050565b6104396000336106ac565b61045e5760405162461bcd60e51b815260040161045590611474565b60405180910390fd5b610466610548565b6007556104716106d5565b60085560098290556006546104869082610a97565b600655610494600e83610aa3565b506104a0601082610aa3565b505050565b6000828152602081905260409020600101546104c081610aaf565b6104a08383610ab9565b6001600160a01b038116331461053a5760405162461bcd60e51b815260206004820152602f60248201527f416363657373436f6e74726f6c3a2063616e206f6e6c792072656e6f756e636560448201526e103937b632b9903337b91039b2b63360891b6064820152608401610455565b6105448282610adb565b5050565b600080600260009054906101000a90046001600160a01b03166001600160a01b031663775a25e36040518163ffffffff1660e01b8152600401602060405180830381865afa15801561059e573d6000803e3d6000fd5b505050506040513d601f19601f820116820180604052508101906105c291906114c2565b9050806000036105d457505060075490565b61061c6106138261060d670de0b6b3a76400006106076105fe6008546105f86106d5565b90610afd565b60095490610b09565b90610b09565b90610b15565b60075490610a97565b91505b5090565b61062c81610b21565b50565b61063881610b21565b6001600160a01b0381166000908152600c6020526040812090818161065d8282611310565b5050506001600160a01b0382166000908152600d60205260408120915081816106868282611310565b5050505050565b60008281526001602052604081206106a59083610df5565b9392505050565b6000918252602082815260408084206001600160a01b0393909316845291905290205460ff1690565b60006106e342600654610e01565b905090565b6106f36000336106ac565b61070f5760405162461bcd60e51b815260040161045590611474565b600081116107555760405162461bcd60e51b81526020600482015260136024820152722a37b5b2b72130b7359d103130b9b29032b93960691b6044820152606401610455565b600491909155600555565b816001600160a01b0381161561082a57600061077b8261093f565b905060005b815181116107f65781818151811061079a5761079a6114db565b6020026020010151600b6000856001600160a01b03166001600160a01b0316815260200190815260200160002082815481106107d8576107d86114db565b600091825260209091200155806107ee81611507565b915050610780565b506107ff610548565b60078190556001600160a01b0383166000908152600a60205260409020556108256106d5565b600855505b6108547f50fb51e06ae3313af73ede6a40f547e8437f0d446219110bae8fbea948c778b6336106ac565b6108b85760405162461bcd60e51b815260206004820152602f60248201527f546f6b656e42616e6b3a206d75737420686176652062616e6b2072657761726460448201526e081c9bdb19481d1bc81c9958dbdc99608a1b6064820152608401610455565b6001600160a01b0383166000908152600c602052604090206108da9083610aa3565b506001600160a01b0383166000908152600d602052604090206108fd9042610aa3565b50505050565b600081815260016020526040812061042890610e17565b60008281526020819052604090206001015461093581610aaf565b6104a08383610adb565b60608060005b6001600160a01b0384166000908152600c6020526040902061096690610e17565b8111610a4357610a146109d1670de0b6b3a764000061060d6109af600a60008a6001600160a01b03166001600160a01b03168152602001908152602001600020546105f8610548565b6001600160a01b0389166000908152600c602052604090206106079087610df5565b6001600160a01b0386166000908152600b602052604090208054849081106109fb576109fb6114db565b9060005260206000200154610a9790919063ffffffff16565b828281518110610a2657610a266114db565b602090810291909101015280610a3b81611507565b915050610945565b5092915050565b60606106e36010610e21565b60606106e3600e610e21565b60006001600160e01b03198216637965db0b60e01b148061042857506301ffc9a760e01b6001600160e01b0319831614610428565b60006106a58284611520565b60006106a58383610e2e565b61062c8133610e7d565b610ac38282610ed6565b60008281526001602052604090206104a09082610f5a565b610ae58282610f6f565b60008281526001602052604090206104a09082610fd4565b60006106a58284611533565b60006106a58284611546565b60006106a5828461155d565b806001600160a01b03811615610beb576000610b3c8261093f565b905060005b81518111610bb757818181518110610b5b57610b5b6114db565b6020026020010151600b6000856001600160a01b03166001600160a01b031681526020019081526020016000208281548110610b9957610b996114db565b60009182526020909120015580610baf81611507565b915050610b41565b50610bc0610548565b60078190556001600160a01b0383166000908152600a6020526040902055610be66106d5565b600855505b610c157f50fb51e06ae3313af73ede6a40f547e8437f0d446219110bae8fbea948c778b6336106ac565b610c795760405162461bcd60e51b815260206004820152602f60248201527f546f6b656e42616e6b3a206d75737420686176652062616e6b2072657761726460448201526e081c9bdb19481d1bc81c995dd85c99608a1b6064820152608401610455565b6000805b6001600160a01b0384166000908152600b60205260409020548111610cf9576001600160a01b0384166000908152600b602052604090208054610ce5919083908110610ccb57610ccb6114db565b906000526020600020015483610a9790919063ffffffff16565b915080610cf181611507565b915050610c7d565b508015610dad576001600160a01b0383166000908152600b60205260408120610d2191611310565b6003546005546004546001600160a01b03909216916340c10f19918691610d4e919061060d908790610b09565b6040516001600160e01b031960e085901b1681526001600160a01b0390921660048301526024820152604401600060405180830381600087803b158015610d9457600080fd5b505af1158015610da8573d6000803e3d6000fd5b505050505b826001600160a01b03167f619caafabdd75649b302ba8419e48cccf64f37f1983ac4727cfb38b57703ffc982604051610de891815260200190565b60405180910390a2505050565b60006106a58383610fe9565b6000818310610e1057816106a5565b5090919050565b6000610428825490565b606060006106a583611013565b6000818152600183016020526040812054610e7557508154600181810184556000848152602080822090930184905584548482528286019093526040902091909155610428565b506000610428565b610e8782826106ac565b61054457610e948161106f565b610e9f836020611081565b604051602001610eb09291906115a3565b60408051601f198184030181529082905262461bcd60e51b825261045591600401611618565b610ee082826106ac565b610544576000828152602081815260408083206001600160a01b03851684529091529020805460ff19166001179055610f163390565b6001600160a01b0316816001600160a01b0316837f2f8788117e7eff1d82e926ec794901d17c78024a50270940304540a733656f0d60405160405180910390a45050565b60006106a5836001600160a01b038416610e2e565b610f7982826106ac565b15610544576000828152602081815260408083206001600160a01b0385168085529252808320805460ff1916905551339285917ff6391f5c32d9c69d2a47ea670b442974b53935d1edc7fd64eb21e047a839171b9190a45050565b60006106a5836001600160a01b03841661121d565b6000826000018281548110611000576110006114db565b9060005260206000200154905092915050565b60608160000180548060200260200160405190810160405280929190818152602001828054801561106357602002820191906000526020600020905b81548152602001906001019080831161104f575b50505050509050919050565b60606104286001600160a01b03831660145b60606000611090836002611546565b61109b906002611520565b67ffffffffffffffff8111156110b3576110b361164b565b6040519080825280601f01601f1916602001820160405280156110dd576020820181803683370190505b509050600360fc1b816000815181106110f8576110f86114db565b60200101906001600160f81b031916908160001a905350600f60fb1b81600181518110611127576111276114db565b60200101906001600160f81b031916908160001a905350600061114b846002611546565b611156906001611520565b90505b60018111156111ce576f181899199a1a9b1b9c1cb0b131b232b360811b85600f166010811061118a5761118a6114db565b1a60f81b8282815181106111a0576111a06114db565b60200101906001600160f81b031916908160001a90535060049490941c936111c781611661565b9050611159565b5083156106a55760405162461bcd60e51b815260206004820181905260248201527f537472696e67733a20686578206c656e67746820696e73756666696369656e746044820152606401610455565b60008181526001830160205260408120548015611306576000611241600183611533565b855490915060009061125590600190611533565b90508181146112ba576000866000018281548110611275576112756114db565b9060005260206000200154905080876000018481548110611298576112986114db565b6000918252602080832090910192909255918252600188019052604090208390555b85548690806112cb576112cb611678565b600190038181906000526020600020016000905590558560010160008681526020019081526020016000206000905560019350505050610428565b6000915050610428565b508054600082559060005260206000209081019061062c91905b8082111561061f576000815560010161132a565b60006020828403121561135057600080fd5b81356001600160e01b0319811681146106a557600080fd5b80356001600160a01b038116811461137f57600080fd5b919050565b60006020828403121561139657600080fd5b6106a582611368565b6000602082840312156113b157600080fd5b5035919050565b600080604083850312156113cb57600080fd5b50508035926020909101359150565b600080604083850312156113ed57600080fd5b823591506113fd60208401611368565b90509250929050565b6000806040838503121561141957600080fd5b61142283611368565b946020939093013593505050565b6020808252825182820181905260009190848201906040850190845b818110156114685783518352928401929184019160010161144c565b50909695505050505050565b6020808252602e908201527f546f6b656e42616e6b3a206d75737420686176652064656661756c742061646d60408201526d1a5b881c9bdb19481d1bc81cd95d60921b606082015260800190565b6000602082840312156114d457600080fd5b5051919050565b634e487b7160e01b600052603260045260246000fd5b634e487b7160e01b600052601160045260246000fd5b600060018201611519576115196114f1565b5060010190565b80820180821115610428576104286114f1565b81810381811115610428576104286114f1565b8082028115828204841417610428576104286114f1565b60008261157a57634e487b7160e01b600052601260045260246000fd5b500490565b60005b8381101561159a578181015183820152602001611582565b50506000910152565b7f416363657373436f6e74726f6c3a206163636f756e74200000000000000000008152600083516115db81601785016020880161157f565b7001034b99036b4b9b9b4b733903937b6329607d1b601791840191820152835161160c81602884016020880161157f565b01602801949350505050565b602081526000825180602084015261163781604085016020870161157f565b601f01601f19169190910160400192915050565b634e487b7160e01b600052604160045260246000fd5b600081611670576116706114f1565b506000190190565b634e487b7160e01b600052603160045260246000fdfea2646970667358221220a2f335619a47b96162907df76045e811e04f0315992ace8c728f892ab550b75a64736f6c63430008130033",
    "sourcePath": "c:/Users/84002/shared_project/contracts_rel/contracts/TokenBankRewardKey.sol",
    "compiler": {
        "name": "solc",
        "version": "0.8.19+commit.7dd6d404"
    },
    "functionHashes": {
        "DEFAULT_ADMIN_ROLE()": "a217fddf",
        "TOKEN_BANK_REWARD_ROLE()": "eec83549",
        "allRewardsOfUser(address)": "e5b62296",
        "getHistoryRewardRate()": "f54942c5",
        "getHistoryStakingTime()": "f392d818",
        "getLastTime()": "955d14cd",
        "getRoleAdmin(bytes32)": "248a9ca3",
        "getRoleMember(bytes32,uint256)": "9010d07c",
        "getRoleMemberCount(bytes32)": "ca15c873",
        "grantRole(bytes32,address)": "2f2ff15d",
        "hasRole(bytes32,address)": "91d14854",
        "lastUpdateTime()": "c8f33c91",
        "outRecord(address)": "6ed73389",
        "record(address,uint256)": "c6685617",
        "renounceRole(bytes32,address)": "36568abe",
        "revokeRole(bytes32,address)": "d547741f",
        "reward(address)": "6353586b",
        "rewardPerTokenStored()": "df136d65",
        "rewardRate()": "7b0a47ee",
        "rewardUNIPerToken()": "544ec62d",
        "rewardUNIToken()": "ceb406e4",
        "rewardUNITokenBase()": "073e3362",
        "rewardUNITokenRate()": "19b0e96e",
        "setRewardRateAndStakingFinishTime(uint256,uint256)": "2c8d6c10",
        "setRewardUNITokenRate(uint256,uint256)": "b578b0e5",
        "stakingFinishTime()": "6d3c09d8",
        "supportsInterface(bytes4)": "01ffc9a7",
        "tokenBank()": "b968a3a4",
        "userRewardsPerToken(address)": "09ed4db7"
    },
    "gasEstimates": {
        "creation": {
            "codeDepositCost": "1165600",
            "executionCost": "infinite",
            "totalCost": "infinite"
        },
        "external": {
            "DEFAULT_ADMIN_ROLE()": "285",
            "TOKEN_BANK_REWARD_ROLE()": "261",
            "allRewardsOfUser(address)": "infinite",
            "getHistoryRewardRate()": "infinite",
            "getHistoryStakingTime()": "infinite",
            "getLastTime()": "2461",
            "getRoleAdmin(bytes32)": "2515",
            "getRoleMember(bytes32,uint256)": "infinite",
            "getRoleMemberCount(bytes32)": "infinite",
            "grantRole(bytes32,address)": "infinite",
            "hasRole(bytes32,address)": "2697",
            "lastUpdateTime()": "2406",
            "outRecord(address)": "infinite",
            "record(address,uint256)": "infinite",
            "renounceRole(bytes32,address)": "infinite",
            "revokeRole(bytes32,address)": "infinite",
            "reward(address)": "infinite",
            "rewardPerTokenStored()": "2406",
            "rewardRate()": "2384",
            "rewardUNIPerToken()": "infinite",
            "rewardUNIToken()": "2404",
            "rewardUNITokenBase()": "2364",
            "rewardUNITokenRate()": "2341",
            "setRewardRateAndStakingFinishTime(uint256,uint256)": "infinite",
            "setRewardUNITokenRate(uint256,uint256)": "46841",
            "stakingFinishTime()": "2340",
            "supportsInterface(bytes4)": "infinite",
            "tokenBank()": "2404",
            "userRewardsPerToken(address)": "2610"
        },
        "internal": {
            "rewardHandle(address)": "infinite"
        }
    }
}