{
    "contractName": "TokenOwner",
    "abi": [
        {
            "inputs": [
                {
                    "internalType": "address",
                    "name": "tokenTemplate_",
                    "type": "address"
                },
                {
                    "internalType": "address",
                    "name": "top_",
                    "type": "address"
                },
                {
                    "internalType": "address",
                    "name": "pool_",
                    "type": "address"
                },
                {
                    "internalType": "address",
                    "name": "dfil_",
                    "type": "address"
                },
                {
                    "internalType": "address",
                    "name": "sub_",
                    "type": "address"
                },
                {
                    "internalType": "address",
                    "name": "feeTo_",
                    "type": "address"
                }
            ],
            "stateMutability": "nonpayable",
            "type": "constructor"
        },
        {
            "anonymous": false,
            "inputs": [
                {
                    "indexed": true,
                    "internalType": "address",
                    "name": "owner",
                    "type": "address"
                }
            ],
            "name": "CheckOwnerCreated",
            "type": "event"
        },
        {
            "anonymous": false,
            "inputs": [
                {
                    "indexed": true,
                    "internalType": "address",
                    "name": "user",
                    "type": "address"
                },
                {
                    "indexed": false,
                    "internalType": "uint256",
                    "name": "amount",
                    "type": "uint256"
                },
                {
                    "indexed": false,
                    "internalType": "uint256",
                    "name": "relAmount",
                    "type": "uint256"
                },
                {
                    "indexed": false,
                    "internalType": "uint256",
                    "name": "fee",
                    "type": "uint256"
                }
            ],
            "name": "DFIL2FILExchanged",
            "type": "event"
        },
        {
            "anonymous": false,
            "inputs": [
                {
                    "indexed": true,
                    "internalType": "address",
                    "name": "user",
                    "type": "address"
                },
                {
                    "indexed": false,
                    "internalType": "uint256",
                    "name": "amount",
                    "type": "uint256"
                }
            ],
            "name": "FIL2DFILExchanged",
            "type": "event"
        },
        {
            "anonymous": false,
            "inputs": [
                {
                    "indexed": true,
                    "internalType": "address",
                    "name": "user",
                    "type": "address"
                },
                {
                    "indexed": false,
                    "internalType": "uint256",
                    "name": "amount",
                    "type": "uint256"
                }
            ],
            "name": "FILINComplated",
            "type": "event"
        },
        {
            "anonymous": false,
            "inputs": [
                {
                    "indexed": true,
                    "internalType": "address",
                    "name": "owner",
                    "type": "address"
                },
                {
                    "indexed": false,
                    "internalType": "uint256",
                    "name": "amount",
                    "type": "uint256"
                }
            ],
            "name": "RewardFIL2DFILExchanged",
            "type": "event"
        },
        {
            "anonymous": false,
            "inputs": [
                {
                    "indexed": true,
                    "internalType": "bytes32",
                    "name": "role",
                    "type": "bytes32"
                },
                {
                    "indexed": true,
                    "internalType": "bytes32",
                    "name": "previousAdminRole",
                    "type": "bytes32"
                },
                {
                    "indexed": true,
                    "internalType": "bytes32",
                    "name": "newAdminRole",
                    "type": "bytes32"
                }
            ],
            "name": "RoleAdminChanged",
            "type": "event"
        },
        {
            "anonymous": false,
            "inputs": [
                {
                    "indexed": true,
                    "internalType": "bytes32",
                    "name": "role",
                    "type": "bytes32"
                },
                {
                    "indexed": true,
                    "internalType": "address",
                    "name": "account",
                    "type": "address"
                },
                {
                    "indexed": true,
                    "internalType": "address",
                    "name": "sender",
                    "type": "address"
                }
            ],
            "name": "RoleGranted",
            "type": "event"
        },
        {
            "anonymous": false,
            "inputs": [
                {
                    "indexed": true,
                    "internalType": "bytes32",
                    "name": "role",
                    "type": "bytes32"
                },
                {
                    "indexed": true,
                    "internalType": "address",
                    "name": "account",
                    "type": "address"
                },
                {
                    "indexed": true,
                    "internalType": "address",
                    "name": "sender",
                    "type": "address"
                }
            ],
            "name": "RoleRevoked",
            "type": "event"
        },
        {
            "anonymous": false,
            "inputs": [
                {
                    "indexed": true,
                    "internalType": "address",
                    "name": "token",
                    "type": "address"
                }
            ],
            "name": "TokenCreated",
            "type": "event"
        },
        {
            "anonymous": false,
            "inputs": [
                {
                    "indexed": true,
                    "internalType": "address",
                    "name": "owner",
                    "type": "address"
                }
            ],
            "name": "TokenOwnerCreated",
            "type": "event"
        },
        {
            "anonymous": false,
            "inputs": [
                {
                    "indexed": true,
                    "internalType": "address",
                    "name": "user",
                    "type": "address"
                }
            ],
            "name": "UserCreated",
            "type": "event"
        },
        {
            "inputs": [],
            "name": "CREATE_ROLE",
            "outputs": [
                {
                    "internalType": "bytes32",
                    "name": "",
                    "type": "bytes32"
                }
            ],
            "stateMutability": "view",
            "type": "function"
        },
        {
            "inputs": [],
            "name": "DEFAULT_ADMIN_ROLE",
            "outputs": [
                {
                    "internalType": "bytes32",
                    "name": "",
                    "type": "bytes32"
                }
            ],
            "stateMutability": "view",
            "type": "function"
        },
        {
            "inputs": [
                {
                    "internalType": "uint256",
                    "name": "amount",
                    "type": "uint256"
                },
                {
                    "internalType": "uint256",
                    "name": "feeOffset",
                    "type": "uint256"
                }
            ],
            "name": "DFIL2FIL",
            "outputs": [],
            "stateMutability": "nonpayable",
            "type": "function"
        },
        {
            "inputs": [],
            "name": "FIL2DFIL",
            "outputs": [],
            "stateMutability": "payable",
            "type": "function"
        },
        {
            "inputs": [
                {
                    "internalType": "address",
                    "name": "owner",
                    "type": "address"
                }
            ],
            "name": "FILIN",
            "outputs": [],
            "stateMutability": "payable",
            "type": "function"
        },
        {
            "inputs": [],
            "name": "FIL_IN_ROLE",
            "outputs": [
                {
                    "internalType": "bytes32",
                    "name": "",
                    "type": "bytes32"
                }
            ],
            "stateMutability": "view",
            "type": "function"
        },
        {
            "inputs": [],
            "name": "REWARD_EXCHANGE_ROLE",
            "outputs": [
                {
                    "internalType": "bytes32",
                    "name": "",
                    "type": "bytes32"
                }
            ],
            "stateMutability": "view",
            "type": "function"
        },
        {
            "inputs": [
                {
                    "internalType": "address",
                    "name": "owner",
                    "type": "address"
                }
            ],
            "name": "RewardFIL2DFIL",
            "outputs": [],
            "stateMutability": "payable",
            "type": "function"
        },
        {
            "inputs": [],
            "name": "bBase",
            "outputs": [
                {
                    "internalType": "uint256",
                    "name": "",
                    "type": "uint256"
                }
            ],
            "stateMutability": "view",
            "type": "function"
        },
        {
            "inputs": [],
            "name": "bRate",
            "outputs": [
                {
                    "internalType": "uint256",
                    "name": "",
                    "type": "uint256"
                }
            ],
            "stateMutability": "view",
            "type": "function"
        },
        {
            "inputs": [],
            "name": "base",
            "outputs": [
                {
                    "internalType": "uint256",
                    "name": "",
                    "type": "uint256"
                }
            ],
            "stateMutability": "view",
            "type": "function"
        },
        {
            "inputs": [
                {
                    "internalType": "uint256",
                    "name": "cap",
                    "type": "uint256"
                },
                {
                    "internalType": "address payable",
                    "name": "owner",
                    "type": "address"
                },
                {
                    "internalType": "uint256",
                    "name": "startTime",
                    "type": "uint256"
                },
                {
                    "internalType": "string",
                    "name": "machine",
                    "type": "string"
                }
            ],
            "name": "create",
            "outputs": [
                {
                    "internalType": "address",
                    "name": "token",
                    "type": "address"
                }
            ],
            "stateMutability": "nonpayable",
            "type": "function"
        },
        {
            "inputs": [],
            "name": "createCheckOwner",
            "outputs": [],
            "stateMutability": "nonpayable",
            "type": "function"
        },
        {
            "inputs": [
                {
                    "internalType": "address payable",
                    "name": "owner",
                    "type": "address"
                }
            ],
            "name": "createTokenOwner",
            "outputs": [
                {
                    "internalType": "address",
                    "name": "tokenOwner",
                    "type": "address"
                }
            ],
            "stateMutability": "nonpayable",
            "type": "function"
        },
        {
            "inputs": [],
            "name": "dfil",
            "outputs": [
                {
                    "internalType": "contract IDFIL",
                    "name": "",
                    "type": "address"
                }
            ],
            "stateMutability": "view",
            "type": "function"
        },
        {
            "inputs": [],
            "name": "exchangeEnableNoLimit",
            "outputs": [
                {
                    "internalType": "bool",
                    "name": "",
                    "type": "bool"
                }
            ],
            "stateMutability": "view",
            "type": "function"
        },
        {
            "inputs": [
                {
                    "internalType": "address",
                    "name": "owner",
                    "type": "address"
                }
            ],
            "name": "exsitsCheckOwner",
            "outputs": [
                {
                    "internalType": "bool",
                    "name": "",
                    "type": "bool"
                }
            ],
            "stateMutability": "view",
            "type": "function"
        },
        {
            "inputs": [
                {
                    "internalType": "address",
                    "name": "owner",
                    "type": "address"
                }
            ],
            "name": "exsitsOwner",
            "outputs": [
                {
                    "internalType": "bool",
                    "name": "",
                    "type": "bool"
                }
            ],
            "stateMutability": "view",
            "type": "function"
        },
        {
            "inputs": [
                {
                    "internalType": "address",
                    "name": "account",
                    "type": "address"
                }
            ],
            "name": "exsitsUser",
            "outputs": [
                {
                    "internalType": "bool",
                    "name": "",
                    "type": "bool"
                }
            ],
            "stateMutability": "view",
            "type": "function"
        },
        {
            "inputs": [],
            "name": "feeTo",
            "outputs": [
                {
                    "internalType": "address",
                    "name": "",
                    "type": "address"
                }
            ],
            "stateMutability": "view",
            "type": "function"
        },
        {
            "inputs": [],
            "name": "getCheckOwners",
            "outputs": [
                {
                    "internalType": "address[]",
                    "name": "",
                    "type": "address[]"
                }
            ],
            "stateMutability": "view",
            "type": "function"
        },
        {
            "inputs": [
                {
                    "internalType": "uint256",
                    "name": "startIndex",
                    "type": "uint256"
                },
                {
                    "internalType": "uint256",
                    "name": "endIndex",
                    "type": "uint256"
                }
            ],
            "name": "getCheckOwnersByIndex",
            "outputs": [
                {
                    "internalType": "address[]",
                    "name": "",
                    "type": "address[]"
                }
            ],
            "stateMutability": "view",
            "type": "function"
        },
        {
            "inputs": [
                {
                    "internalType": "address",
                    "name": "account",
                    "type": "address"
                }
            ],
            "name": "getLowUsers",
            "outputs": [
                {
                    "internalType": "address[]",
                    "name": "",
                    "type": "address[]"
                }
            ],
            "stateMutability": "view",
            "type": "function"
        },
        {
            "inputs": [
                {
                    "internalType": "address",
                    "name": "owner",
                    "type": "address"
                }
            ],
            "name": "getOwnerUsers",
            "outputs": [
                {
                    "internalType": "address[]",
                    "name": "",
                    "type": "address[]"
                }
            ],
            "stateMutability": "view",
            "type": "function"
        },
        {
            "inputs": [
                {
                    "internalType": "uint256",
                    "name": "startIndex",
                    "type": "uint256"
                },
                {
                    "internalType": "uint256",
                    "name": "endIndex",
                    "type": "uint256"
                }
            ],
            "name": "getOwnersByIndex",
            "outputs": [
                {
                    "internalType": "address[]",
                    "name": "",
                    "type": "address[]"
                }
            ],
            "stateMutability": "view",
            "type": "function"
        },
        {
            "inputs": [
                {
                    "internalType": "bytes32",
                    "name": "role",
                    "type": "bytes32"
                }
            ],
            "name": "getRoleAdmin",
            "outputs": [
                {
                    "internalType": "bytes32",
                    "name": "",
                    "type": "bytes32"
                }
            ],
            "stateMutability": "view",
            "type": "function"
        },
        {
            "inputs": [
                {
                    "internalType": "bytes32",
                    "name": "role",
                    "type": "bytes32"
                },
                {
                    "internalType": "uint256",
                    "name": "index",
                    "type": "uint256"
                }
            ],
            "name": "getRoleMember",
            "outputs": [
                {
                    "internalType": "address",
                    "name": "",
                    "type": "address"
                }
            ],
            "stateMutability": "view",
            "type": "function"
        },
        {
            "inputs": [
                {
                    "internalType": "bytes32",
                    "name": "role",
                    "type": "bytes32"
                }
            ],
            "name": "getRoleMemberCount",
            "outputs": [
                {
                    "internalType": "uint256",
                    "name": "",
                    "type": "uint256"
                }
            ],
            "stateMutability": "view",
            "type": "function"
        },
        {
            "inputs": [
                {
                    "internalType": "address",
                    "name": "owner",
                    "type": "address"
                }
            ],
            "name": "getTokenOwnerTokens",
            "outputs": [
                {
                    "internalType": "address[]",
                    "name": "",
                    "type": "address[]"
                }
            ],
            "stateMutability": "view",
            "type": "function"
        },
        {
            "inputs": [
                {
                    "internalType": "address",
                    "name": "owner",
                    "type": "address"
                },
                {
                    "internalType": "uint256",
                    "name": "startIndex",
                    "type": "uint256"
                },
                {
                    "internalType": "uint256",
                    "name": "endIndex",
                    "type": "uint256"
                }
            ],
            "name": "getTokenOwnerTokensByIndex",
            "outputs": [
                {
                    "internalType": "address[]",
                    "name": "",
                    "type": "address[]"
                }
            ],
            "stateMutability": "view",
            "type": "function"
        },
        {
            "inputs": [
                {
                    "internalType": "address",
                    "name": "owner",
                    "type": "address"
                },
                {
                    "internalType": "uint256",
                    "name": "startIndex",
                    "type": "uint256"
                },
                {
                    "internalType": "uint256",
                    "name": "endIndex",
                    "type": "uint256"
                }
            ],
            "name": "getTokenOwnerUsersByIndex",
            "outputs": [
                {
                    "internalType": "address[]",
                    "name": "",
                    "type": "address[]"
                }
            ],
            "stateMutability": "view",
            "type": "function"
        },
        {
            "inputs": [],
            "name": "getTokens",
            "outputs": [
                {
                    "internalType": "address[]",
                    "name": "",
                    "type": "address[]"
                }
            ],
            "stateMutability": "view",
            "type": "function"
        },
        {
            "inputs": [
                {
                    "internalType": "uint256",
                    "name": "startIndex",
                    "type": "uint256"
                },
                {
                    "internalType": "uint256",
                    "name": "endIndex",
                    "type": "uint256"
                }
            ],
            "name": "getTokensByIndex",
            "outputs": [
                {
                    "internalType": "address[]",
                    "name": "",
                    "type": "address[]"
                }
            ],
            "stateMutability": "view",
            "type": "function"
        },
        {
            "inputs": [],
            "name": "getUserOwner",
            "outputs": [
                {
                    "internalType": "address",
                    "name": "",
                    "type": "address"
                }
            ],
            "stateMutability": "view",
            "type": "function"
        },
        {
            "inputs": [
                {
                    "internalType": "address",
                    "name": "user",
                    "type": "address"
                },
                {
                    "internalType": "uint256",
                    "name": "startIndex",
                    "type": "uint256"
                },
                {
                    "internalType": "uint256",
                    "name": "endIndex",
                    "type": "uint256"
                }
            ],
            "name": "getUserWithLowUsersByIndex",
            "outputs": [
                {
                    "internalType": "address[]",
                    "name": "",
                    "type": "address[]"
                }
            ],
            "stateMutability": "view",
            "type": "function"
        },
        {
            "inputs": [],
            "name": "getUsers",
            "outputs": [
                {
                    "internalType": "address[]",
                    "name": "",
                    "type": "address[]"
                }
            ],
            "stateMutability": "view",
            "type": "function"
        },
        {
            "inputs": [
                {
                    "internalType": "uint256",
                    "name": "startIndex",
                    "type": "uint256"
                },
                {
                    "internalType": "uint256",
                    "name": "endIndex",
                    "type": "uint256"
                }
            ],
            "name": "getUsersByIndex",
            "outputs": [
                {
                    "internalType": "address[]",
                    "name": "",
                    "type": "address[]"
                }
            ],
            "stateMutability": "view",
            "type": "function"
        },
        {
            "inputs": [
                {
                    "internalType": "bytes32",
                    "name": "role",
                    "type": "bytes32"
                },
                {
                    "internalType": "address",
                    "name": "account",
                    "type": "address"
                }
            ],
            "name": "grantRole",
            "outputs": [],
            "stateMutability": "nonpayable",
            "type": "function"
        },
        {
            "inputs": [
                {
                    "internalType": "bytes32",
                    "name": "role",
                    "type": "bytes32"
                },
                {
                    "internalType": "address",
                    "name": "account",
                    "type": "address"
                }
            ],
            "name": "hasRole",
            "outputs": [
                {
                    "internalType": "bool",
                    "name": "",
                    "type": "bool"
                }
            ],
            "stateMutability": "view",
            "type": "function"
        },
        {
            "inputs": [],
            "name": "platToken",
            "outputs": [
                {
                    "internalType": "address",
                    "name": "",
                    "type": "address"
                }
            ],
            "stateMutability": "view",
            "type": "function"
        },
        {
            "inputs": [],
            "name": "pool",
            "outputs": [
                {
                    "internalType": "contract ITokenExchange",
                    "name": "",
                    "type": "address"
                }
            ],
            "stateMutability": "view",
            "type": "function"
        },
        {
            "inputs": [],
            "name": "rate",
            "outputs": [
                {
                    "internalType": "uint256",
                    "name": "",
                    "type": "uint256"
                }
            ],
            "stateMutability": "view",
            "type": "function"
        },
        {
            "inputs": [
                {
                    "internalType": "bytes32",
                    "name": "role",
                    "type": "bytes32"
                },
                {
                    "internalType": "address",
                    "name": "account",
                    "type": "address"
                }
            ],
            "name": "renounceRole",
            "outputs": [],
            "stateMutability": "nonpayable",
            "type": "function"
        },
        {
            "inputs": [
                {
                    "internalType": "bytes32",
                    "name": "role",
                    "type": "bytes32"
                },
                {
                    "internalType": "address",
                    "name": "account",
                    "type": "address"
                }
            ],
            "name": "revokeRole",
            "outputs": [],
            "stateMutability": "nonpayable",
            "type": "function"
        },
        {
            "inputs": [
                {
                    "internalType": "bool",
                    "name": "enable",
                    "type": "bool"
                }
            ],
            "name": "setAllUserExchangeEnable",
            "outputs": [],
            "stateMutability": "nonpayable",
            "type": "function"
        },
        {
            "inputs": [
                {
                    "internalType": "uint256",
                    "name": "rate_",
                    "type": "uint256"
                },
                {
                    "internalType": "uint256",
                    "name": "base_",
                    "type": "uint256"
                }
            ],
            "name": "setAmountRateAndBase",
            "outputs": [],
            "stateMutability": "nonpayable",
            "type": "function"
        },
        {
            "inputs": [
                {
                    "internalType": "address",
                    "name": "feeTo_",
                    "type": "address"
                }
            ],
            "name": "setFeeTo",
            "outputs": [],
            "stateMutability": "nonpayable",
            "type": "function"
        },
        {
            "inputs": [
                {
                    "internalType": "address",
                    "name": "platToken_",
                    "type": "address"
                },
                {
                    "internalType": "uint256",
                    "name": "rate_",
                    "type": "uint256"
                },
                {
                    "internalType": "uint256",
                    "name": "base_",
                    "type": "uint256"
                }
            ],
            "name": "setPlatTokenAndRateAndBase",
            "outputs": [],
            "stateMutability": "nonpayable",
            "type": "function"
        },
        {
            "inputs": [
                {
                    "internalType": "address",
                    "name": "recommendAccount",
                    "type": "address"
                }
            ],
            "name": "setUser",
            "outputs": [],
            "stateMutability": "nonpayable",
            "type": "function"
        },
        {
            "inputs": [],
            "name": "sub",
            "outputs": [
                {
                    "internalType": "contract ISub",
                    "name": "",
                    "type": "address"
                }
            ],
            "stateMutability": "view",
            "type": "function"
        },
        {
            "inputs": [
                {
                    "internalType": "bytes4",
                    "name": "interfaceId",
                    "type": "bytes4"
                }
            ],
            "name": "supportsInterface",
            "outputs": [
                {
                    "internalType": "bool",
                    "name": "",
                    "type": "bool"
                }
            ],
            "stateMutability": "view",
            "type": "function"
        },
        {
            "inputs": [
                {
                    "internalType": "address",
                    "name": "",
                    "type": "address"
                }
            ],
            "name": "tokenOwnerfilBalance",
            "outputs": [
                {
                    "internalType": "int256",
                    "name": "",
                    "type": "int256"
                }
            ],
            "stateMutability": "view",
            "type": "function"
        },
        {
            "inputs": [],
            "name": "tokenTemplate",
            "outputs": [
                {
                    "internalType": "address",
                    "name": "",
                    "type": "address"
                }
            ],
            "stateMutability": "view",
            "type": "function"
        },
        {
            "inputs": [],
            "name": "top",
            "outputs": [
                {
                    "internalType": "address",
                    "name": "",
                    "type": "address"
                }
            ],
            "stateMutability": "view",
            "type": "function"
        },
        {
            "inputs": [
                {
                    "internalType": "address",
                    "name": "",
                    "type": "address"
                }
            ],
            "name": "userWithTokenOwner",
            "outputs": [
                {
                    "internalType": "address",
                    "name": "",
                    "type": "address"
                }
            ],
            "stateMutability": "view",
            "type": "function"
        },
        {
            "inputs": [
                {
                    "internalType": "address",
                    "name": "",
                    "type": "address"
                }
            ],
            "name": "userWithTopUsers",
            "outputs": [
                {
                    "internalType": "address",
                    "name": "",
                    "type": "address"
                }
            ],
            "stateMutability": "view",
            "type": "function"
        },
        {
            "inputs": [
                {
                    "internalType": "address",
                    "name": "",
                    "type": "address"
                }
            ],
            "name": "usersAt",
            "outputs": [
                {
                    "internalType": "uint256",
                    "name": "",
                    "type": "uint256"
                }
            ],
            "stateMutability": "view",
            "type": "function"
        }
    ],
    "bytecode": "608060405260056018556103e86019556001601a556001601b553480156200002657600080fd5b506040516200386a3803806200386a83398101604081905262000049916200029c565b600280546001600160a01b03199081166001600160a01b0389811691909117909255601680548216878416179055601280548216868416179055601380548216858416179055601780548216848416179055600a80549091169187169182179055620000b890600d9062000141565b50600a80546001600160a01b039081166000908152600f602090815260408083204290559354909216808252601090925291822080546001600160a01b031916909117905562000109903362000161565b620001357f2ad5dda4abad2eba9015076cc6a1db468a91b444067d58b590c8c73985521a043362000161565b5050505050506200031d565b600062000158836001600160a01b0384166200018c565b90505b92915050565b6200016d8282620001de565b600082815260016020526040902062000187908262000141565b505050565b6000818152600183016020526040812054620001d5575081546001818101845560008481526020808220909301849055845484825282860190935260409020919091556200015b565b5060006200015b565b6000828152602081815260408083206001600160a01b038516845290915290205460ff166200027b576000828152602081815260408083206001600160a01b03851684529091529020805460ff191660011790556200023a3390565b6001600160a01b0316816001600160a01b0316837f2f8788117e7eff1d82e926ec794901d17c78024a50270940304540a733656f0d60405160405180910390a45b5050565b80516001600160a01b03811681146200029757600080fd5b919050565b60008060008060008060c08789031215620002b657600080fd5b620002c1876200027f565b9550620002d1602088016200027f565b9450620002e1604088016200027f565b9350620002f1606088016200027f565b925062000301608088016200027f565b91506200031160a088016200027f565b90509295509295509295565b61353d806200032d6000396000f3fe6080604052600436106103745760003560e01c80638ae541a0116101d1578063c54124be11610102578063e4df80c6116100a0578063f46901ed1161006f578063f46901ed14610a70578063f5ba16f514610a90578063fe36c56c14610ab0578063fe6dcdba14610ad057600080fd5b8063e4df80c6146109fd578063edfd890c14610a12578063f164270f14610a1a578063f1a7748914610a3a57600080fd5b8063d04ff329116100dc578063d04ff32914610976578063d18e0e0014610989578063d20687ef146109a9578063d547741f146109dd57600080fd5b8063c54124be14610923578063c637922b14610943578063ca15c8731461095657600080fd5b8063aa43a8ba1161016f578063acd3367d11610149578063acd3367d146108b8578063b8ca788c146108cd578063b9a541eb146108ed578063bd1b1c641461090357600080fd5b8063aa43a8ba14610863578063aa6ca80814610883578063ac8a66921461089857600080fd5b806393adb7a2116101ab57806393adb7a2146107ed5780639eabf3371461080e578063a217fddf1461082e578063aa2c60171461084357600080fd5b80638ae541a01461078d5780639010d07c146107ad57806391d14854146107cd57600080fd5b806336568abe116102ab5780636722bbba1161024957806376e6ac3a1161022357806376e6ac3a1461070d57806378ce339e1461072d5780637baf0d5c1461074d578063858ced351461076d57600080fd5b80636722bbba146106ac5780636bbb342f146106cc578063710646c5146106e257600080fd5b806342ad046d1161028557806342ad046d146106295780634485f182146106495780635001f3b5146106695780635761c9f61461067f57600080fd5b806336568abe146105bc5780633bf87ffd146105dc5780633cf0d2861461060957600080fd5b806316f0115b116103185780632c4e722e116102f25780632c4e722e146105325780632f09e546146105485780632f2ff15d1461056857806333f358d61461058857600080fd5b806316f0115b146104c25780631da2e481146104e2578063248a9ca31461050257600080fd5b806301ffc9a71161035457806301ffc9a71461041a5780630814d3dd1461044a578063092587791461046a5780630aee2b54146104a057600080fd5b80626f53c914610379578062ce8e3e146103c0578063017e7e58146103e2575b600080fd5b34801561038557600080fd5b506103ad7f2ad5dda4abad2eba9015076cc6a1db468a91b444067d58b590c8c73985521a0481565b6040519081526020015b60405180910390f35b3480156103cc57600080fd5b506103d5610af0565b6040516103b79190612f61565b3480156103ee57600080fd5b50601754610402906001600160a01b031681565b6040516001600160a01b0390911681526020016103b7565b34801561042657600080fd5b5061043a610435366004612fae565b610b01565b60405190151581526020016103b7565b34801561045657600080fd5b50600254610402906001600160a01b031681565b34801561047657600080fd5b50610402610485366004612fed565b6010602052600090815260409020546001600160a01b031681565b3480156104ac57600080fd5b506104c06104bb36600461300a565b610b2c565b005b3480156104ce57600080fd5b50601654610402906001600160a01b031681565b3480156104ee57600080fd5b506103d56104fd36600461302c565b61108b565b34801561050e57600080fd5b506103ad61051d366004613061565b60009081526020819052604090206001015490565b34801561053e57600080fd5b506103ad60185481565b34801561055457600080fd5b506103d561056336600461302c565b6111a2565b34801561057457600080fd5b506104c061058336600461307a565b6112b0565b34801561059457600080fd5b506103ad7ff4bad603dee46c61e42283057017a3f128ffe0ca6121f9aeecb00879ac3776d581565b3480156105c857600080fd5b506104c06105d736600461307a565b6112da565b3480156105e857600080fd5b506103ad6105f7366004612fed565b600f6020526000908152604090205481565b34801561061557600080fd5b50610402610624366004612fed565b611358565b34801561063557600080fd5b50601454610402906001600160a01b031681565b34801561065557600080fd5b506103d561066436600461300a565b61158d565b34801561067557600080fd5b506103ad60195481565b34801561068b57600080fd5b506103ad61069a366004612fed565b60156020526000908152604090205481565b3480156106b857600080fd5b506104026106c73660046130aa565b611675565b3480156106d857600080fd5b506103ad601b5481565b3480156106ee57600080fd5b50336000908152600b60205260409020546001600160a01b0316610402565b34801561071957600080fd5b5061043a610728366004612fed565b61197d565b34801561073957600080fd5b506103d5610748366004612fed565b61198a565b34801561075957600080fd5b50601254610402906001600160a01b031681565b34801561077957600080fd5b506104c0610788366004612fed565b6119ae565b34801561079957600080fd5b506103d56107a8366004612fed565b611bd4565b3480156107b957600080fd5b506104026107c836600461300a565b611bf8565b3480156107d957600080fd5b5061043a6107e836600461307a565b611c17565b3480156107f957600080fd5b5060145461043a90600160a01b900460ff1681565b34801561081a57600080fd5b506103d561082936600461302c565b611c40565b34801561083a57600080fd5b506103ad600081565b34801561084f57600080fd5b506104c061085e366004613140565b611d4e565b34801561086f57600080fd5b506104c061087e36600461302c565b611d93565b34801561088f57600080fd5b506103d5611e2a565b3480156108a457600080fd5b5061043a6108b3366004612fed565b611e36565b3480156108c457600080fd5b506104c0611e43565b3480156108d957600080fd5b506104c06108e836600461300a565b611fde565b3480156108f957600080fd5b506103ad601a5481565b34801561090f57600080fd5b5061043a61091e366004612fed565b612057565b34801561092f57600080fd5b50601354610402906001600160a01b031681565b6104c0610951366004612fed565b612064565b34801561096257600080fd5b506103ad610971366004613061565b6121fd565b6104c0610984366004612fed565b612214565b34801561099557600080fd5b506103d56109a4366004612fed565b61233a565b3480156109b557600080fd5b506103ad7f89ce7c2d9eba9d93805bace6a2249b75b78de2ca0eee75a1c4b35f765e5c182781565b3480156109e957600080fd5b506104c06109f836600461307a565b61235e565b348015610a0957600080fd5b506103d5612383565b6104c061238f565b348015610a2657600080fd5b506103d5610a3536600461300a565b61259c565b348015610a4657600080fd5b50610402610a55366004612fed565b600b602052600090815260409020546001600160a01b031681565b348015610a7c57600080fd5b506104c0610a8b366004612fed565b61267c565b348015610a9c57600080fd5b506103d5610aab36600461300a565b6126c5565b348015610abc57600080fd5b506103d5610acb36600461300a565b6127a5565b348015610adc57600080fd5b50600a54610402906001600160a01b031681565b6060610afc600d612885565b905090565b60006001600160e01b03198216635a05180f60e01b1480610b265750610b2682612892565b92915050565b610b39335b600d906128c7565b610b8a5760405162461bcd60e51b815260206004820152601b60248201527f546f6b656e4f776e65723a206e6f74206578697374732075736572000000000060448201526064015b60405180910390fd5b600a54336001600160a01b0390911603610bb65760405162461bcd60e51b8152600401610b8190613162565b336000908152600b60205260408120546001600160a01b03169003610c145760405162461bcd60e51b81526020600482015260146024820152732a37b5b2b727bbb732b91d1032b939103ab9b2b960611b6044820152606401610b81565b6064821015610c355760405162461bcd60e51b8152600401610b8190613199565b81471015610c855760405162461bcd60e51b815260206004820181905260248201527f546f6b656e4f776e65723a20496e73756666696369656e742062616c616e63656044820152606401610b81565b610c8e826128e9565b336000908152600b60209081526040808320546001600160a01b031683526015909152902054610cbe91906131f4565b336000908152600b60209081526040808320546001600160a01b031683526015909152902055601454600160a01b900460ff1680610d1e5750336000908152600b6020526040902054610d1c906005906001600160a01b03166128c7565b155b80610d4d5750336000908152600b60209081526040808320546001600160a01b03168352601590915281205412155b610db15760405162461bcd60e51b815260206004820152602f60248201527f546f6b656e4f776e65723a20496e73756666696369656e7420617661696c616260448201526e1b194818dc99591a5d081b1a5b5a5d608a1b6064820152608401610b81565b6000610dd4601954610dce6018548661295790919063ffffffff16565b90612963565b9050600082118015610df057506014546001600160a01b031615155b15610ef75781811015610e515760405162461bcd60e51b8152602060048201526024808201527f546f6b656e4f776e65723a20666565206d757374206d6f7265207468616e20626044820152632066656560e01b6064820152608401610b81565b6000610e6e601b54610dce601a548661295790919063ffffffff16565b90508015610ee9576014546001600160a01b03166379cc6790336040516001600160e01b031960e084901b1681526001600160a01b03909116600482015260248101849052604401600060405180830381600087803b158015610ed057600080fd5b505af1158015610ee4573d6000803e3d6000fd5b505050505b610ef3828461296f565b9150505b8015610f7a576012546001600160a01b03166323b872dd3360175460405160e084901b6001600160e01b03191681526001600160a01b0392831660048201529116602482015260448101849052606401600060405180830381600087803b158015610f6157600080fd5b505af1158015610f75573d6000803e3d6000fd5b505050505b6012546001600160a01b03166379cc679033610f96868561296f565b6040516001600160e01b031960e085901b1681526001600160a01b0390921660048301526024820152604401600060405180830381600087803b158015610fdc57600080fd5b505af1158015610ff0573d6000803e3d6000fd5b50505050610ffb3390565b6001600160a01b03166108fc611011858461296f565b6040518115909202916000818181858888f19350505050158015611039573d6000803e3d6000fd5b50337f72e9f0730a9676a6ef9a099b8a1df68db5ad6994188daac95f22c1206b921dfc84611067818561296f565b604080519283526020830191909152810184905260600160405180910390a2505050565b60606001600160a01b03841660009081526011602052604090206110ae9061297b565b82111580156110bd5750828210155b6110d95760405162461bcd60e51b8152600401610b8190613214565b60006110e58484613243565b67ffffffffffffffff8111156110fd576110fd613256565b604051908082528060200260200182016040528015611126578160200160208202803683370190505b509050835b838111611199576001600160a01b03861660009081526011602052604090206111549082612985565b8261115f8784613243565b8151811061116f5761116f61326c565b6001600160a01b03909216602092830291909101909101528061119181613282565b91505061112b565b50949350505050565b60606001600160a01b03841660009081526009602052604090206111c59061297b565b82111580156111d45750828210155b6111f05760405162461bcd60e51b8152600401610b8190613214565b60006111fc8484613243565b67ffffffffffffffff81111561121457611214613256565b60405190808252806020026020018201604052801561123d578160200160208202803683370190505b509050835b838111611199576001600160a01b038616600090815260096020526040902061126b9082612985565b826112768784613243565b815181106112865761128661326c565b6001600160a01b0390921660209283029190910190910152806112a881613282565b915050611242565b6000828152602081905260409020600101546112cb81612991565b6112d5838361299e565b505050565b6001600160a01b038116331461134a5760405162461bcd60e51b815260206004820152602f60248201527f416363657373436f6e74726f6c3a2063616e206f6e6c792072656e6f756e636560448201526e103937b632b9903337b91039b2b63360891b6064820152608401610b81565b61135482826129c0565b5050565b60006113847f2ad5dda4abad2eba9015076cc6a1db468a91b444067d58b590c8c73985521a0433611c17565b6113e45760405162461bcd60e51b815260206004820152602b60248201527f546f6b656e4f776e65723a206d75737420686176652063726561746520726f6c60448201526a6520746f2063726561746560a81b6064820152608401610b81565b6001600160a01b03821660000361143d5760405162461bcd60e51b815260206004820152601e60248201527f546f6b656e4f776e65723a206f6e776572207a65726f206164647265737300006044820152606401610b81565b600a546001600160a01b0380841691160361146a5760405162461bcd60e51b8152600401610b8190613162565b6001600160a01b03808316600090815260106020526040902054600a5482169116146114d85760405162461bcd60e51b815260206004820181905260248201527f546f6b656e4f776e65723a207265636f6d6d656e64206973206e6f7420746f706044820152606401610b81565b6114e36005836128c7565b1561152b5760405162461bcd60e51b81526020600482015260186024820152772a37b5b2b727bbb732b91d1032bc34b9ba399037bbb732b960411b6044820152606401610b81565b6115366003836128c7565b15611548576115466003836129de565b505b6115536005836129f3565b506040516001600160a01b038216907f200d83c4dff69503f5c4330b047d51083b9d81c1491225799a8912ab91b68c1190600090a2919050565b6060611599600561297b565b82111580156115a85750828210155b6115c45760405162461bcd60e51b8152600401610b8190613214565b60006115d08484613243565b67ffffffffffffffff8111156115e8576115e8613256565b604051908082528060200260200182016040528015611611578160200160208202803683370190505b509050835b83811161166d57611628600582612985565b826116338784613243565b815181106116435761164361326c565b6001600160a01b03909216602092830291909101909101528061166581613282565b915050611616565b509392505050565b60006116a17f2ad5dda4abad2eba9015076cc6a1db468a91b444067d58b590c8c73985521a0433611c17565b6117005760405162461bcd60e51b815260206004820152602a60248201527f546f6b656e4f776e6572206d75737420686176652063726561746520726f6c6560448201526920746f2063726561746560b01b6064820152608401610b81565b61170b6005866128c7565b6117575760405162461bcd60e51b815260206004820152601c60248201527f546f6b656e4f776e65723a206e6f7420657869737473206f776e6572000000006044820152606401610b81565b60025461176c906001600160a01b0316612a08565b601254601354604051628930a560e61b81529293506001600160a01b038085169363224c2940936117b2938c939182169291169033908c908c908c908c9060040161329b565b600060405180830381600087803b1580156117cc57600080fd5b505af11580156117e0573d6000803e3d6000fd5b5050601254604051637e51dad560e11b81526001600160a01b038581166004830152909116925063fca3b5aa9150602401600060405180830381600087803b15801561182b57600080fd5b505af115801561183f573d6000803e3d6000fd5b50506012546040516311c9021d60e21b81526001600160a01b03858116600483015260016024830152909116925063472408749150604401600060405180830381600087803b15801561189157600080fd5b505af11580156118a5573d6000803e3d6000fd5b50506013546040516354cb6b6760e11b81526001600160a01b038581166004830152909116925063a996d6ce9150602401600060405180830381600087803b1580156118f057600080fd5b505af1158015611904573d6000803e3d6000fd5b5050505061191c8160076129f390919063ffffffff16565b506001600160a01b038516600090815260096020526040902061193f90826129f3565b506040516001600160a01b038216907f2e2b3f61b70d2d131b2a807371103cc98d51adcaa5e9a8f9c32658ad8426e74e90600090a295945050505050565b6000610b266005836128c7565b6001600160a01b0381166000908152601160205260409020606090610b2690612885565b6001600160a01b0381163303611a065760405162461bcd60e51b815260206004820152601960248201527f546f6b656e4f776e65723a206572726f722061646472657373000000000000006044820152606401610b81565b611a0f33610b31565b15611a5c5760405162461bcd60e51b815260206004820152601760248201527f546f6b656e4f776e65723a2065786973747320757365720000000000000000006044820152606401610b81565b611a67600d826128c7565b611ac15760405162461bcd60e51b815260206004820152602560248201527f546f6b656e4f776e65723a206e6f7420657869737473207265636f6d6d656e64604482015264103ab9b2b960d91b6064820152608401610b81565b611acc600d336129f3565b50336000818152600f602090815260408083204290556010825280832080546001600160a01b0319166001600160a01b038716908117909155835260119091529020611b17916129f3565b50600a546001600160a01b03808316911603611b5257336000818152600b6020526040902080546001600160a01b0319169091179055611ba6565b6001600160a01b038181166000908152600b6020908152604080832080543380865283862080546001600160a01b0319169288169290921790915590549094168352600c9091529020611ba4916129f3565b505b60405133907f0b0376a109cbb578b709f85f6a7befcdac3ac1ab251c99ede87f30c9572ac4d390600090a250565b6001600160a01b0381166000908152600c60205260409020606090610b2690612885565b6000828152600160205260408120611c109083612985565b9392505050565b6000918252602082815260408084206001600160a01b0393909316845291905290205460ff1690565b60606001600160a01b0384166000908152600c60205260409020611c639061297b565b8211158015611c725750828210155b611c8e5760405162461bcd60e51b8152600401610b8190613214565b6000611c9a8484613243565b67ffffffffffffffff811115611cb257611cb2613256565b604051908082528060200260200182016040528015611cdb578160200160208202803683370190505b509050835b838111611199576001600160a01b0386166000908152600c60205260409020611d099082612985565b82611d148784613243565b81518110611d2457611d2461326c565b6001600160a01b039092166020928302919091019091015280611d4681613282565b915050611ce0565b611d59600033611c17565b611d755760405162461bcd60e51b8152600401610b8190613308565b60148054911515600160a01b0260ff60a01b19909216919091179055565b611d9e600033611c17565b611dba5760405162461bcd60e51b8152600401610b8190613308565b60008111611e015760405162461bcd60e51b81526020600482015260146024820152732a37b5b2b727bbb732b91d103130b9b29032b93960611b6044820152606401610b81565b601480546001600160a01b0319166001600160a01b039490941693909317909255601a55601b55565b6060610afc6007612885565b6000610b266003836128c7565b611e4e6003336128c7565b15611ea65760405162461bcd60e51b815260206004820152602260248201527f546f6b656e4f776e65723a206578697374732072657175657374206d65737361604482015261676560f01b6064820152608401610b81565b600a54336001600160a01b0390911603611ed25760405162461bcd60e51b8152600401610b8190613162565b33600090815260106020526040902054600a546001600160a01b03918216911614611f525760405162461bcd60e51b815260206004820152602a60248201527f546f6b656e4f776e65723a207265636f6d6d656e642075736572206973206e6f6044820152693a103a37b8103ab9b2b960b11b6064820152608401610b81565b611f5d6005336128c7565b15611fa55760405162461bcd60e51b81526020600482015260186024820152772a37b5b2b727bbb732b91d1032bc34b9ba399037bbb732b960411b6044820152606401610b81565b611fb06003336129f3565b5060405133907ffd82e0f64d53e0e384ad8554e4bdabd5e9b0f166507a60f19d539442fe8f393090600090a2565b611fe9600033611c17565b6120055760405162461bcd60e51b8152600401610b8190613308565b6000811161204c5760405162461bcd60e51b81526020600482015260146024820152732a37b5b2b727bbb732b91d103130b9b29032b93960611b6044820152606401610b81565b601891909155601955565b6000610b26600d836128c7565b61208e7ff4bad603dee46c61e42283057017a3f128ffe0ca6121f9aeecb00879ac3776d533611c17565b6120ed5760405162461bcd60e51b815260206004820152602a60248201527f546f6b656e4f776e65723a206d7573742068617665207265776172642065786360448201526968616e676520726f6c6560b01b6064820152608401610b81565b6000341161210d5760405162461bcd60e51b8152600401610b8190613357565b612116346128e9565b6001600160a01b038216600090815260156020526040902054612139919061339a565b6001600160a01b038281166000908152601560205260408082209390935560125483516340c10f1960e01b815233600482015234602482015293519216926340c10f19926044808301939282900301818387803b15801561219957600080fd5b505af11580156121ad573d6000803e3d6000fd5b505050506121b83390565b6001600160a01b03167f907025e3dc85a4c603aec822c6e3600f778ac3056c74e137e4aa1c4a3fd1971c346040516121f291815260200190565b60405180910390a250565b6000818152600160205260408120610b269061297b565b61223e7f89ce7c2d9eba9d93805bace6a2249b75b78de2ca0eee75a1c4b35f765e5c182733611c17565b61229a5760405162461bcd60e51b815260206004820152602760248201527f546f6b656e4f776e65723a206d75737420686176652066696c20696e20726f6c60448201526632903a379034b760c91b6064820152608401610b81565b600034116122ba5760405162461bcd60e51b8152600401610b8190613357565b6122c3346128e9565b6001600160a01b0382166000908152601560205260409020546122e6919061339a565b6001600160a01b038216600090815260156020526040902055336001600160a01b03167fde41309d37d4a5eaff78c7b42bdf9befd20ff9a3a05691df36cf25b0a7459673346040516121f291815260200190565b6001600160a01b0381166000908152600960205260409020606090610b2690612885565b60008281526020819052604090206001015461237981612991565b6112d583836129c0565b6060610afc6003612885565b61239833610b31565b6123e45760405162461bcd60e51b815260206004820152601b60248201527f546f6b656e4f776e65723a206e6f7420657869737473207573657200000000006044820152606401610b81565b600a54336001600160a01b03909116036124105760405162461bcd60e51b8152600401610b8190613162565b336000908152600b60205260408120546001600160a01b0316900361246e5760405162461bcd60e51b81526020600482015260146024820152732a37b5b2b727bbb732b91d1032b939103ab9b2b960611b6044820152606401610b81565b606434101561248f5760405162461bcd60e51b8152600401610b8190613199565b612498346128e9565b336000908152600b60209081526040808320546001600160a01b0316835260159091529020546124c8919061339a565b336000818152600b60209081526040808320546001600160a01b03908116845260159092528083209490945560125484516340c10f1960e01b8152600481019490945234602485015293519316926340c10f1992604480820193929182900301818387803b15801561253957600080fd5b505af115801561254d573d6000803e3d6000fd5b505050506125583390565b6001600160a01b03167fa22ed7ce65493bf63e3fab859f0f6787d441ebc982c37f905c64e687ced72a113460405161259291815260200190565b60405180910390a2565b60606125a8600361297b565b82111580156125b75750828210155b6125d35760405162461bcd60e51b8152600401610b8190613214565b60006125df8484613243565b67ffffffffffffffff8111156125f7576125f7613256565b604051908082528060200260200182016040528015612620578160200160208202803683370190505b509050835b83811161166d57612637600382612985565b826126428784613243565b815181106126525761265261326c565b6001600160a01b03909216602092830291909101909101528061267481613282565b915050612625565b612687600033611c17565b6126a35760405162461bcd60e51b8152600401610b8190613308565b601780546001600160a01b0319166001600160a01b0392909216919091179055565b60606126d1600761297b565b82111580156126e05750828210155b6126fc5760405162461bcd60e51b8152600401610b8190613214565b60006127088484613243565b67ffffffffffffffff81111561272057612720613256565b604051908082528060200260200182016040528015612749578160200160208202803683370190505b509050835b83811161166d57612760600782612985565b8261276b8784613243565b8151811061277b5761277b61326c565b6001600160a01b03909216602092830291909101909101528061279d81613282565b91505061274e565b60606127b1600d61297b565b82111580156127c05750828210155b6127dc5760405162461bcd60e51b8152600401610b8190613214565b60006127e88484613243565b67ffffffffffffffff81111561280057612800613256565b604051908082528060200260200182016040528015612829578160200160208202803683370190505b509050835b83811161166d57612840600d82612985565b8261284b8784613243565b8151811061285b5761285b61326c565b6001600160a01b03909216602092830291909101909101528061287d81613282565b91505061282e565b60606000611c1083612aa2565b60006001600160e01b03198216637965db0b60e01b1480610b2657506301ffc9a760e01b6001600160e01b0319831614610b26565b6001600160a01b03811660009081526001830160205260408120541515611c10565b60006001600160ff1b038211156129535760405162461bcd60e51b815260206004820152602860248201527f53616665436173743a2076616c756520646f65736e27742066697420696e2061604482015267371034b73a191a9b60c11b6064820152608401610b81565b5090565b6000611c1082846133c2565b6000611c1082846133d9565b6000611c108284613243565b6000610b26825490565b6000611c108383612afe565b61299b8133612b28565b50565b6129a88282612b81565b60008281526001602052604090206112d590826129f3565b6129ca8282612c05565b60008281526001602052604090206112d590825b6000611c10836001600160a01b038416612c6a565b6000611c10836001600160a01b038416612d64565b6000763d602d80600a3d3981f3363d3d373d3d3d363d730000008260601b60e81c176000526e5af43d82803e903d91602b57fd5bf38260781b17602052603760096000f090506001600160a01b038116612a9d5760405162461bcd60e51b8152602060048201526016602482015275115490cc4c4d8dce8818dc99585d194819985a5b195960521b6044820152606401610b81565b919050565b606081600001805480602002602001604051908101604052809291908181526020018280548015612af257602002820191906000526020600020905b815481526020019060010190808311612ade575b50505050509050919050565b6000826000018281548110612b1557612b1561326c565b9060005260206000200154905092915050565b612b328282611c17565b61135457612b3f81612db3565b612b4a836020612dc5565b604051602001612b5b92919061341f565b60408051601f198184030181529082905262461bcd60e51b8252610b8191600401613494565b612b8b8282611c17565b611354576000828152602081815260408083206001600160a01b03851684529091529020805460ff19166001179055612bc13390565b6001600160a01b0316816001600160a01b0316837f2f8788117e7eff1d82e926ec794901d17c78024a50270940304540a733656f0d60405160405180910390a45050565b612c0f8282611c17565b15611354576000828152602081815260408083206001600160a01b0385168085529252808320805460ff1916905551339285917ff6391f5c32d9c69d2a47ea670b442974b53935d1edc7fd64eb21e047a839171b9190a45050565b60008181526001830160205260408120548015612d53576000612c8e600183613243565b8554909150600090612ca290600190613243565b9050818114612d07576000866000018281548110612cc257612cc261326c565b9060005260206000200154905080876000018481548110612ce557612ce561326c565b6000918252602080832090910192909255918252600188019052604090208390555b8554869080612d1857612d186134c7565b600190038181906000526020600020016000905590558560010160008681526020019081526020016000206000905560019350505050610b26565b6000915050610b26565b5092915050565b6000818152600183016020526040812054612dab57508154600181810184556000848152602080822090930184905584548482528286019093526040902091909155610b26565b506000610b26565b6060610b266001600160a01b03831660145b60606000612dd48360026133c2565b612ddf9060026134dd565b67ffffffffffffffff811115612df757612df7613256565b6040519080825280601f01601f191660200182016040528015612e21576020820181803683370190505b509050600360fc1b81600081518110612e3c57612e3c61326c565b60200101906001600160f81b031916908160001a905350600f60fb1b81600181518110612e6b57612e6b61326c565b60200101906001600160f81b031916908160001a9053506000612e8f8460026133c2565b612e9a9060016134dd565b90505b6001811115612f12576f181899199a1a9b1b9c1cb0b131b232b360811b85600f1660108110612ece57612ece61326c565b1a60f81b828281518110612ee457612ee461326c565b60200101906001600160f81b031916908160001a90535060049490941c93612f0b816134f0565b9050612e9d565b508315611c105760405162461bcd60e51b815260206004820181905260248201527f537472696e67733a20686578206c656e67746820696e73756666696369656e746044820152606401610b81565b6020808252825182820181905260009190848201906040850190845b81811015612fa25783516001600160a01b031683529284019291840191600101612f7d565b50909695505050505050565b600060208284031215612fc057600080fd5b81356001600160e01b031981168114611c1057600080fd5b6001600160a01b038116811461299b57600080fd5b600060208284031215612fff57600080fd5b8135611c1081612fd8565b6000806040838503121561301d57600080fd5b50508035926020909101359150565b60008060006060848603121561304157600080fd5b833561304c81612fd8565b95602085013595506040909401359392505050565b60006020828403121561307357600080fd5b5035919050565b6000806040838503121561308d57600080fd5b82359150602083013561309f81612fd8565b809150509250929050565b6000806000806000608086880312156130c257600080fd5b8535945060208601356130d481612fd8565b935060408601359250606086013567ffffffffffffffff808211156130f857600080fd5b818801915088601f83011261310c57600080fd5b81358181111561311b57600080fd5b89602082850101111561312d57600080fd5b9699959850939650602001949392505050565b60006020828403121561315257600080fd5b81358015158114611c1057600080fd5b6020808252601f908201527f546f6b656e4f776e65723a20746f702075736572206e6f7420616c6c6f777300604082015260600190565b60208082526025908201527f546f6b656e4f776e65723a20616d6f756e74206d757374206d6f72652074686160408201526406e203130360dc1b606082015260800190565b634e487b7160e01b600052601160045260246000fd5b8181036000831280158383131683831282161715612d5d57612d5d6131de565b6020808252601590820152742a37b5b2b727bbb732b91d1034b73232bc1032b93960591b604082015260600190565b81810381811115610b2657610b266131de565b634e487b7160e01b600052604160045260246000fd5b634e487b7160e01b600052603260045260246000fd5b600060018201613294576132946131de565b5060010190565b8881526001600160a01b038881166020830152878116604083015286811660608301528516608082015260a0810184905260e060c08201819052810182905260006101008385828501376000838501820152601f909301601f191690910190910198975050505050505050565b6020808252602f908201527f546f6b656e4f776e65723a206d75737420686176652064656661756c7420616460408201526e1b5a5b881c9bdb19481d1bc81cd95d608a1b606082015260800190565b60208082526023908201527f546f6b656e4f776e65723a20616d6f756e74206d757374206d6f72652074686160408201526206e20360ec1b606082015260800190565b80820182811260008312801582168215821617156133ba576133ba6131de565b505092915050565b8082028115828204841417610b2657610b266131de565b6000826133f657634e487b7160e01b600052601260045260246000fd5b500490565b60005b838110156134165781810151838201526020016133fe565b50506000910152565b7f416363657373436f6e74726f6c3a206163636f756e74200000000000000000008152600083516134578160178501602088016133fb565b7001034b99036b4b9b9b4b733903937b6329607d1b60179184019182015283516134888160288401602088016133fb565b01602801949350505050565b60208152600082518060208401526134b38160408501602087016133fb565b601f01601f19169190910160400192915050565b634e487b7160e01b600052603160045260246000fd5b80820180821115610b2657610b266131de565b6000816134ff576134ff6131de565b50600019019056fea26469706673582212200d2023b62635901588d94034c287bd5e2ad7e6d3c56c2006c8ff6e8c2c92793f64736f6c63430008130033",
    "sourcePath": "c:/Users/84002/shared_project/contracts_rel/contracts/TokenOwner.sol",
    "compiler": {
        "name": "solc",
        "version": "0.8.19+commit.7dd6d404"
    },
    "functionHashes": {
        "CREATE_ROLE()": "006f53c9",
        "DEFAULT_ADMIN_ROLE()": "a217fddf",
        "DFIL2FIL(uint256,uint256)": "0aee2b54",
        "FIL2DFIL()": "edfd890c",
        "FILIN(address)": "d04ff329",
        "FIL_IN_ROLE()": "d20687ef",
        "REWARD_EXCHANGE_ROLE()": "33f358d6",
        "RewardFIL2DFIL(address)": "c637922b",
        "bBase()": "6bbb342f",
        "bRate()": "b9a541eb",
        "base()": "5001f3b5",
        "create(uint256,address,uint256,string)": "6722bbba",
        "createCheckOwner()": "acd3367d",
        "createTokenOwner(address)": "3cf0d286",
        "dfil()": "7baf0d5c",
        "exchangeEnableNoLimit()": "93adb7a2",
        "exsitsCheckOwner(address)": "ac8a6692",
        "exsitsOwner(address)": "76e6ac3a",
        "exsitsUser(address)": "bd1b1c64",
        "feeTo()": "017e7e58",
        "getCheckOwners()": "e4df80c6",
        "getCheckOwnersByIndex(uint256,uint256)": "f164270f",
        "getLowUsers(address)": "78ce339e",
        "getOwnerUsers(address)": "8ae541a0",
        "getOwnersByIndex(uint256,uint256)": "4485f182",
        "getRoleAdmin(bytes32)": "248a9ca3",
        "getRoleMember(bytes32,uint256)": "9010d07c",
        "getRoleMemberCount(bytes32)": "ca15c873",
        "getTokenOwnerTokens(address)": "d18e0e00",
        "getTokenOwnerTokensByIndex(address,uint256,uint256)": "2f09e546",
        "getTokenOwnerUsersByIndex(address,uint256,uint256)": "9eabf337",
        "getTokens()": "aa6ca808",
        "getTokensByIndex(uint256,uint256)": "f5ba16f5",
        "getUserOwner()": "710646c5",
        "getUserWithLowUsersByIndex(address,uint256,uint256)": "1da2e481",
        "getUsers()": "00ce8e3e",
        "getUsersByIndex(uint256,uint256)": "fe36c56c",
        "grantRole(bytes32,address)": "2f2ff15d",
        "hasRole(bytes32,address)": "91d14854",
        "platToken()": "42ad046d",
        "pool()": "16f0115b",
        "rate()": "2c4e722e",
        "renounceRole(bytes32,address)": "36568abe",
        "revokeRole(bytes32,address)": "d547741f",
        "setAllUserExchangeEnable(bool)": "aa2c6017",
        "setAmountRateAndBase(uint256,uint256)": "b8ca788c",
        "setFeeTo(address)": "f46901ed",
        "setPlatTokenAndRateAndBase(address,uint256,uint256)": "aa43a8ba",
        "setUser(address)": "858ced35",
        "sub()": "c54124be",
        "supportsInterface(bytes4)": "01ffc9a7",
        "tokenOwnerfilBalance(address)": "5761c9f6",
        "tokenTemplate()": "0814d3dd",
        "top()": "fe6dcdba",
        "userWithTokenOwner(address)": "f1a77489",
        "userWithTopUsers(address)": "09258779",
        "usersAt(address)": "3bf87ffd"
    },
    "gasEstimates": {
        "creation": {
            "codeDepositCost": "2725800",
            "executionCost": "infinite",
            "totalCost": "infinite"
        },
        "external": {
            "CREATE_ROLE()": "254",
            "DEFAULT_ADMIN_ROLE()": "296",
            "DFIL2FIL(uint256,uint256)": "infinite",
            "FIL2DFIL()": "infinite",
            "FILIN(address)": "28710",
            "FIL_IN_ROLE()": "295",
            "REWARD_EXCHANGE_ROLE()": "318",
            "RewardFIL2DFIL(address)": "infinite",
            "bBase()": "2374",
            "bRate()": "2395",
            "base()": "2396",
            "create(uint256,address,uint256,string)": "infinite",
            "createCheckOwner()": "infinite",
            "createTokenOwner(address)": "infinite",
            "dfil()": "2448",
            "exchangeEnableNoLimit()": "2395",
            "exsitsCheckOwner(address)": "infinite",
            "exsitsOwner(address)": "infinite",
            "exsitsUser(address)": "infinite",
            "feeTo()": "2451",
            "getCheckOwners()": "infinite",
            "getCheckOwnersByIndex(uint256,uint256)": "infinite",
            "getLowUsers(address)": "infinite",
            "getOwnerUsers(address)": "infinite",
            "getOwnersByIndex(uint256,uint256)": "infinite",
            "getRoleAdmin(bytes32)": "2549",
            "getRoleMember(bytes32,uint256)": "infinite",
            "getRoleMemberCount(bytes32)": "infinite",
            "getTokenOwnerTokens(address)": "infinite",
            "getTokenOwnerTokensByIndex(address,uint256,uint256)": "infinite",
            "getTokenOwnerUsersByIndex(address,uint256,uint256)": "infinite",
            "getTokens()": "infinite",
            "getTokensByIndex(uint256,uint256)": "infinite",
            "getUserOwner()": "2511",
            "getUserWithLowUsersByIndex(address,uint256,uint256)": "infinite",
            "getUsers()": "infinite",
            "getUsersByIndex(uint256,uint256)": "infinite",
            "grantRole(bytes32,address)": "infinite",
            "hasRole(bytes32,address)": "2774",
            "platToken()": "2405",
            "pool()": "2406",
            "rate()": "2352",
            "renounceRole(bytes32,address)": "infinite",
            "revokeRole(bytes32,address)": "infinite",
            "setAllUserExchangeEnable(bool)": "26968",
            "setAmountRateAndBase(uint256,uint256)": "46885",
            "setFeeTo(address)": "26945",
            "setPlatTokenAndRateAndBase(address,uint256,uint256)": "71220",
            "setUser(address)": "infinite",
            "sub()": "2405",
            "supportsInterface(bytes4)": "infinite",
            "tokenOwnerfilBalance(address)": "2636",
            "tokenTemplate()": "2428",
            "top()": "2469",
            "userWithTokenOwner(address)": "2685",
            "userWithTopUsers(address)": "2665",
            "usersAt(address)": "2593"
        }
    }
}