{
    "contractName": "TokenTemplate",
    "abi": [
        {
            "inputs": [],
            "stateMutability": "nonpayable",
            "type": "constructor"
        },
        {
            "anonymous": false,
            "inputs": [
                {
                    "indexed": true,
                    "internalType": "address",
                    "name": "owner",
                    "type": "address"
                },
                {
                    "indexed": true,
                    "internalType": "address",
                    "name": "spender",
                    "type": "address"
                },
                {
                    "indexed": false,
                    "internalType": "uint256",
                    "name": "value",
                    "type": "uint256"
                }
            ],
            "name": "Approval",
            "type": "event"
        },
        {
            "anonymous": false,
            "inputs": [
                {
                    "indexed": true,
                    "internalType": "address",
                    "name": "account",
                    "type": "address"
                },
                {
                    "indexed": false,
                    "internalType": "uint256",
                    "name": "amount",
                    "type": "uint256"
                }
            ],
            "name": "ExchangeToken",
            "type": "event"
        },
        {
            "anonymous": false,
            "inputs": [
                {
                    "indexed": false,
                    "internalType": "uint8",
                    "name": "version",
                    "type": "uint8"
                }
            ],
            "name": "Initialized",
            "type": "event"
        },
        {
            "anonymous": false,
            "inputs": [
                {
                    "indexed": true,
                    "internalType": "bytes32",
                    "name": "role",
                    "type": "bytes32"
                },
                {
                    "indexed": true,
                    "internalType": "bytes32",
                    "name": "previousAdminRole",
                    "type": "bytes32"
                },
                {
                    "indexed": true,
                    "internalType": "bytes32",
                    "name": "newAdminRole",
                    "type": "bytes32"
                }
            ],
            "name": "RoleAdminChanged",
            "type": "event"
        },
        {
            "anonymous": false,
            "inputs": [
                {
                    "indexed": true,
                    "internalType": "bytes32",
                    "name": "role",
                    "type": "bytes32"
                },
                {
                    "indexed": true,
                    "internalType": "address",
                    "name": "account",
                    "type": "address"
                },
                {
                    "indexed": true,
                    "internalType": "address",
                    "name": "sender",
                    "type": "address"
                }
            ],
            "name": "RoleGranted",
            "type": "event"
        },
        {
            "anonymous": false,
            "inputs": [
                {
                    "indexed": true,
                    "internalType": "bytes32",
                    "name": "role",
                    "type": "bytes32"
                },
                {
                    "indexed": true,
                    "internalType": "address",
                    "name": "account",
                    "type": "address"
                },
                {
                    "indexed": true,
                    "internalType": "address",
                    "name": "sender",
                    "type": "address"
                }
            ],
            "name": "RoleRevoked",
            "type": "event"
        },
        {
            "anonymous": false,
            "inputs": [
                {
                    "indexed": true,
                    "internalType": "address",
                    "name": "from",
                    "type": "address"
                },
                {
                    "indexed": true,
                    "internalType": "address",
                    "name": "to",
                    "type": "address"
                },
                {
                    "indexed": false,
                    "internalType": "uint256",
                    "name": "value",
                    "type": "uint256"
                }
            ],
            "name": "Transfer",
            "type": "event"
        },
        {
            "inputs": [],
            "name": "DEFAULT_ADMIN_ROLE",
            "outputs": [
                {
                    "internalType": "bytes32",
                    "name": "",
                    "type": "bytes32"
                }
            ],
            "stateMutability": "view",
            "type": "function"
        },
        {
            "inputs": [],
            "name": "GRANT_WHITE_ROLE",
            "outputs": [
                {
                    "internalType": "bytes32",
                    "name": "",
                    "type": "bytes32"
                }
            ],
            "stateMutability": "view",
            "type": "function"
        },
        {
            "inputs": [],
            "name": "OWNER_ROLE",
            "outputs": [
                {
                    "internalType": "bytes32",
                    "name": "",
                    "type": "bytes32"
                }
            ],
            "stateMutability": "view",
            "type": "function"
        },
        {
            "inputs": [
                {
                    "internalType": "address",
                    "name": "owner",
                    "type": "address"
                },
                {
                    "internalType": "address",
                    "name": "spender",
                    "type": "address"
                }
            ],
            "name": "allowance",
            "outputs": [
                {
                    "internalType": "uint256",
                    "name": "",
                    "type": "uint256"
                }
            ],
            "stateMutability": "view",
            "type": "function"
        },
        {
            "inputs": [
                {
                    "internalType": "address",
                    "name": "spender",
                    "type": "address"
                },
                {
                    "internalType": "uint256",
                    "name": "amount",
                    "type": "uint256"
                }
            ],
            "name": "approve",
            "outputs": [
                {
                    "internalType": "bool",
                    "name": "",
                    "type": "bool"
                }
            ],
            "stateMutability": "nonpayable",
            "type": "function"
        },
        {
            "inputs": [
                {
                    "internalType": "address",
                    "name": "account",
                    "type": "address"
                }
            ],
            "name": "balanceOf",
            "outputs": [
                {
                    "internalType": "uint256",
                    "name": "",
                    "type": "uint256"
                }
            ],
            "stateMutability": "view",
            "type": "function"
        },
        {
            "inputs": [],
            "name": "burnSubBase",
            "outputs": [
                {
                    "internalType": "uint256",
                    "name": "",
                    "type": "uint256"
                }
            ],
            "stateMutability": "view",
            "type": "function"
        },
        {
            "inputs": [],
            "name": "burnSubRate",
            "outputs": [
                {
                    "internalType": "uint256",
                    "name": "",
                    "type": "uint256"
                }
            ],
            "stateMutability": "view",
            "type": "function"
        },
        {
            "inputs": [],
            "name": "cap",
            "outputs": [
                {
                    "internalType": "uint256",
                    "name": "",
                    "type": "uint256"
                }
            ],
            "stateMutability": "view",
            "type": "function"
        },
        {
            "inputs": [],
            "name": "decimals",
            "outputs": [
                {
                    "internalType": "uint8",
                    "name": "",
                    "type": "uint8"
                }
            ],
            "stateMutability": "view",
            "type": "function"
        },
        {
            "inputs": [
                {
                    "internalType": "address",
                    "name": "spender",
                    "type": "address"
                },
                {
                    "internalType": "uint256",
                    "name": "subtractedValue",
                    "type": "uint256"
                }
            ],
            "name": "decreaseAllowance",
            "outputs": [
                {
                    "internalType": "bool",
                    "name": "",
                    "type": "bool"
                }
            ],
            "stateMutability": "nonpayable",
            "type": "function"
        },
        {
            "inputs": [],
            "name": "depositBase",
            "outputs": [
                {
                    "internalType": "uint256",
                    "name": "",
                    "type": "uint256"
                }
            ],
            "stateMutability": "view",
            "type": "function"
        },
        {
            "inputs": [],
            "name": "depositRate",
            "outputs": [
                {
                    "internalType": "uint256",
                    "name": "",
                    "type": "uint256"
                }
            ],
            "stateMutability": "view",
            "type": "function"
        },
        {
            "inputs": [
                {
                    "internalType": "uint256",
                    "name": "amount",
                    "type": "uint256"
                }
            ],
            "name": "exchangeToken",
            "outputs": [],
            "stateMutability": "nonpayable",
            "type": "function"
        },
        {
            "inputs": [
                {
                    "internalType": "bytes32",
                    "name": "role",
                    "type": "bytes32"
                }
            ],
            "name": "getRoleAdmin",
            "outputs": [
                {
                    "internalType": "bytes32",
                    "name": "",
                    "type": "bytes32"
                }
            ],
            "stateMutability": "view",
            "type": "function"
        },
        {
            "inputs": [
                {
                    "internalType": "bytes32",
                    "name": "role",
                    "type": "bytes32"
                },
                {
                    "internalType": "uint256",
                    "name": "index",
                    "type": "uint256"
                }
            ],
            "name": "getRoleMember",
            "outputs": [
                {
                    "internalType": "address",
                    "name": "",
                    "type": "address"
                }
            ],
            "stateMutability": "view",
            "type": "function"
        },
        {
            "inputs": [
                {
                    "internalType": "bytes32",
                    "name": "role",
                    "type": "bytes32"
                }
            ],
            "name": "getRoleMemberCount",
            "outputs": [
                {
                    "internalType": "uint256",
                    "name": "",
                    "type": "uint256"
                }
            ],
            "stateMutability": "view",
            "type": "function"
        },
        {
            "inputs": [
                {
                    "internalType": "bytes32",
                    "name": "role",
                    "type": "bytes32"
                },
                {
                    "internalType": "address",
                    "name": "account",
                    "type": "address"
                }
            ],
            "name": "grantRole",
            "outputs": [],
            "stateMutability": "nonpayable",
            "type": "function"
        },
        {
            "inputs": [
                {
                    "internalType": "bytes32",
                    "name": "role",
                    "type": "bytes32"
                },
                {
                    "internalType": "address",
                    "name": "account",
                    "type": "address"
                }
            ],
            "name": "hasRole",
            "outputs": [
                {
                    "internalType": "bool",
                    "name": "",
                    "type": "bool"
                }
            ],
            "stateMutability": "view",
            "type": "function"
        },
        {
            "inputs": [
                {
                    "internalType": "address",
                    "name": "spender",
                    "type": "address"
                },
                {
                    "internalType": "uint256",
                    "name": "addedValue",
                    "type": "uint256"
                }
            ],
            "name": "increaseAllowance",
            "outputs": [
                {
                    "internalType": "bool",
                    "name": "",
                    "type": "bool"
                }
            ],
            "stateMutability": "nonpayable",
            "type": "function"
        },
        {
            "inputs": [
                {
                    "internalType": "uint256",
                    "name": "cap_",
                    "type": "uint256"
                },
                {
                    "internalType": "address",
                    "name": "dfil_",
                    "type": "address"
                },
                {
                    "internalType": "address",
                    "name": "sub_",
                    "type": "address"
                },
                {
                    "internalType": "address",
                    "name": "admin_",
                    "type": "address"
                },
                {
                    "internalType": "address",
                    "name": "owner_",
                    "type": "address"
                },
                {
                    "internalType": "uint256",
                    "name": "startTime_",
                    "type": "uint256"
                },
                {
                    "internalType": "string",
                    "name": "machine_",
                    "type": "string"
                }
            ],
            "name": "initialize",
            "outputs": [],
            "stateMutability": "nonpayable",
            "type": "function"
        },
        {
            "inputs": [],
            "name": "logo",
            "outputs": [
                {
                    "internalType": "string",
                    "name": "",
                    "type": "string"
                }
            ],
            "stateMutability": "view",
            "type": "function"
        },
        {
            "inputs": [],
            "name": "machine",
            "outputs": [
                {
                    "internalType": "string",
                    "name": "",
                    "type": "string"
                }
            ],
            "stateMutability": "view",
            "type": "function"
        },
        {
            "inputs": [],
            "name": "name",
            "outputs": [
                {
                    "internalType": "string",
                    "name": "",
                    "type": "string"
                }
            ],
            "stateMutability": "view",
            "type": "function"
        },
        {
            "inputs": [],
            "name": "nameToken",
            "outputs": [
                {
                    "internalType": "string",
                    "name": "",
                    "type": "string"
                }
            ],
            "stateMutability": "view",
            "type": "function"
        },
        {
            "inputs": [],
            "name": "priceTokenBase",
            "outputs": [
                {
                    "internalType": "uint256",
                    "name": "",
                    "type": "uint256"
                }
            ],
            "stateMutability": "view",
            "type": "function"
        },
        {
            "inputs": [],
            "name": "priceTokenRate",
            "outputs": [
                {
                    "internalType": "uint256",
                    "name": "",
                    "type": "uint256"
                }
            ],
            "stateMutability": "view",
            "type": "function"
        },
        {
            "inputs": [
                {
                    "internalType": "bytes32",
                    "name": "role",
                    "type": "bytes32"
                },
                {
                    "internalType": "address",
                    "name": "account",
                    "type": "address"
                }
            ],
            "name": "renounceRole",
            "outputs": [],
            "stateMutability": "nonpayable",
            "type": "function"
        },
        {
            "inputs": [
                {
                    "internalType": "bytes32",
                    "name": "role",
                    "type": "bytes32"
                },
                {
                    "internalType": "address",
                    "name": "account",
                    "type": "address"
                }
            ],
            "name": "revokeRole",
            "outputs": [],
            "stateMutability": "nonpayable",
            "type": "function"
        },
        {
            "inputs": [
                {
                    "internalType": "uint256",
                    "name": "rate",
                    "type": "uint256"
                },
                {
                    "internalType": "uint256",
                    "name": "base",
                    "type": "uint256"
                }
            ],
            "name": "setBurnSub",
            "outputs": [],
            "stateMutability": "nonpayable",
            "type": "function"
        },
        {
            "inputs": [
                {
                    "internalType": "uint256",
                    "name": "rate",
                    "type": "uint256"
                },
                {
                    "internalType": "uint256",
                    "name": "base",
                    "type": "uint256"
                }
            ],
            "name": "setDeposit",
            "outputs": [],
            "stateMutability": "nonpayable",
            "type": "function"
        },
        {
            "inputs": [
                {
                    "internalType": "string",
                    "name": "logo_",
                    "type": "string"
                }
            ],
            "name": "setLogo",
            "outputs": [],
            "stateMutability": "nonpayable",
            "type": "function"
        },
        {
            "inputs": [
                {
                    "internalType": "string",
                    "name": "machine_",
                    "type": "string"
                }
            ],
            "name": "setMachine",
            "outputs": [],
            "stateMutability": "nonpayable",
            "type": "function"
        },
        {
            "inputs": [
                {
                    "internalType": "string",
                    "name": "name_",
                    "type": "string"
                }
            ],
            "name": "setNameToken",
            "outputs": [],
            "stateMutability": "nonpayable",
            "type": "function"
        },
        {
            "inputs": [
                {
                    "internalType": "uint256",
                    "name": "rate",
                    "type": "uint256"
                },
                {
                    "internalType": "uint256",
                    "name": "base",
                    "type": "uint256"
                }
            ],
            "name": "setPriceToken",
            "outputs": [],
            "stateMutability": "nonpayable",
            "type": "function"
        },
        {
            "inputs": [
                {
                    "internalType": "uint256",
                    "name": "startTime_",
                    "type": "uint256"
                }
            ],
            "name": "setStartTime",
            "outputs": [],
            "stateMutability": "nonpayable",
            "type": "function"
        },
        {
            "inputs": [
                {
                    "internalType": "uint256",
                    "name": "time",
                    "type": "uint256"
                }
            ],
            "name": "setSubEndTime",
            "outputs": [],
            "stateMutability": "nonpayable",
            "type": "function"
        },
        {
            "inputs": [
                {
                    "internalType": "address",
                    "name": "account",
                    "type": "address"
                },
                {
                    "internalType": "bool",
                    "name": "enable",
                    "type": "bool"
                }
            ],
            "name": "setWhite",
            "outputs": [],
            "stateMutability": "nonpayable",
            "type": "function"
        },
        {
            "inputs": [
                {
                    "internalType": "bool",
                    "name": "enable",
                    "type": "bool"
                }
            ],
            "name": "setWhiteEnable",
            "outputs": [],
            "stateMutability": "nonpayable",
            "type": "function"
        },
        {
            "inputs": [],
            "name": "startTime",
            "outputs": [
                {
                    "internalType": "uint256",
                    "name": "",
                    "type": "uint256"
                }
            ],
            "stateMutability": "view",
            "type": "function"
        },
        {
            "inputs": [],
            "name": "subEndTime",
            "outputs": [
                {
                    "internalType": "uint256",
                    "name": "",
                    "type": "uint256"
                }
            ],
            "stateMutability": "view",
            "type": "function"
        },
        {
            "inputs": [
                {
                    "internalType": "bytes4",
                    "name": "interfaceId",
                    "type": "bytes4"
                }
            ],
            "name": "supportsInterface",
            "outputs": [
                {
                    "internalType": "bool",
                    "name": "",
                    "type": "bool"
                }
            ],
            "stateMutability": "view",
            "type": "function"
        },
        {
            "inputs": [],
            "name": "symbol",
            "outputs": [
                {
                    "internalType": "string",
                    "name": "",
                    "type": "string"
                }
            ],
            "stateMutability": "view",
            "type": "function"
        },
        {
            "inputs": [],
            "name": "totalSupply",
            "outputs": [
                {
                    "internalType": "uint256",
                    "name": "",
                    "type": "uint256"
                }
            ],
            "stateMutability": "view",
            "type": "function"
        },
        {
            "inputs": [
                {
                    "internalType": "address",
                    "name": "to",
                    "type": "address"
                },
                {
                    "internalType": "uint256",
                    "name": "amount",
                    "type": "uint256"
                }
            ],
            "name": "transfer",
            "outputs": [
                {
                    "internalType": "bool",
                    "name": "",
                    "type": "bool"
                }
            ],
            "stateMutability": "nonpayable",
            "type": "function"
        },
        {
            "inputs": [
                {
                    "internalType": "address",
                    "name": "from",
                    "type": "address"
                },
                {
                    "internalType": "address",
                    "name": "to",
                    "type": "address"
                },
                {
                    "internalType": "uint256",
                    "name": "amount",
                    "type": "uint256"
                }
            ],
            "name": "transferFrom",
            "outputs": [
                {
                    "internalType": "bool",
                    "name": "",
                    "type": "bool"
                }
            ],
            "stateMutability": "nonpayable",
            "type": "function"
        },
        {
            "inputs": [
                {
                    "internalType": "address",
                    "name": "",
                    "type": "address"
                }
            ],
            "name": "white",
            "outputs": [
                {
                    "internalType": "bool",
                    "name": "",
                    "type": "bool"
                }
            ],
            "stateMutability": "view",
            "type": "function"
        },
        {
            "inputs": [],
            "name": "whiteEnable",
            "outputs": [
                {
                    "internalType": "bool",
                    "name": "",
                    "type": "bool"
                }
            ],
            "stateMutability": "view",
            "type": "function"
        }
    ],
    "bytecode": "60806040526018805460ff191660011790553480156200001e57600080fd5b50604051806040016040528060058152602001642a37b5b2b760d91b815250604051806040016040528060018152602001601560fa1b8152508160039081620000689190620001f2565b506004620000778282620001f2565b50620000859150506200008b565b620002be565b600754610100900460ff1615620000f85760405162461bcd60e51b815260206004820152602760248201527f496e697469616c697a61626c653a20636f6e747261637420697320696e697469604482015266616c697a696e6760c81b606482015260840160405180910390fd5b60075460ff90811610156200014b576007805460ff191660ff9081179091556040519081527f7f26b83ff96e1f2b6a682f133852f6798a09c465da95921460cefb38474024989060200160405180910390a15b565b634e487b7160e01b600052604160045260246000fd5b600181811c908216806200017857607f821691505b6020821081036200019957634e487b7160e01b600052602260045260246000fd5b50919050565b601f821115620001ed57600081815260208120601f850160051c81016020861015620001c85750805b601f850160051c820191505b81811015620001e957828155600101620001d4565b5050505b505050565b81516001600160401b038111156200020e576200020e6200014d565b62000226816200021f845462000163565b846200019f565b602080601f8311600181146200025e5760008415620002455750858301515b600019600386901b1c1916600185901b178555620001e9565b600085815260208120601f198616915b828110156200028f578886015182559484019460019091019084016200026e565b5085821015620002ae5787850151600019600388901b60f8161c191681555b5050505050600190811b01905550565b61233d80620002ce6000396000f3fe608060405234801561001057600080fd5b50600436106102a05760003560e01c80636e31178411610167578063a217fddf116100ce578063ca15c87311610087578063ca15c8731461059e578063d547741f146105b1578063dd62ed3e146105c4578063e58378bb146105d7578063ef8d5259146105ec578063fb7f21eb146105ff57600080fd5b8063a217fddf1461054b578063a457c2d714610553578063a9059cbb14610566578063ab339c1814610579578063b3fef72114610582578063bc237e5e1461059557600080fd5b8063895462e011610120578063895462e0146104d65780638f78c311146104df5780639010d07c146104f257806391d148541461051d57806395d89b4114610530578063a08ee9c21461053857600080fd5b80636e3117841461047857806370a082311461048057806375c60225146104a957806378e97925146104b15780637909c1cf146104ba5780637e74a1ed146104cd57600080fd5b80632fe319621161020b57806347240874116101c4578063472408741461040e57806347b4aabd14610421578063578680be1461043657806360efef0e14610449578063629765c41461045c57806369a4684d1461046f57600080fd5b80632fe31962146103ab578063313ce567146103be578063355274ea146103cd57806336568abe146103d557806339509351146103e85780633e0a322d146103fb57600080fd5b806318160ddd1161025d57806318160ddd1461033c578063224c29401461034457806323b872dd14610359578063248a9ca31461036c578063257865011461038f5780632f2ff15d1461039857600080fd5b806301ffc9a7146102a557806304f5a077146102cd57806306fdde03146102f0578063095ea7b31461030557806311e4d4ca146103185780631758a0c414610325575b600080fd5b6102b86102b3366004611ca0565b610607565b60405190151581526020015b60405180910390f35b6102b86102db366004611ce6565b60196020526000908152604090205460ff1681565b6102f8610632565b6040516102c49190611d25565b6102b8610313366004611d58565b6106c4565b6018546102b89060ff1681565b61032e60095481565b6040519081526020016102c4565b60025461032e565b610357610352366004611dcb565b6106dc565b005b6102b8610367366004611e64565b6109cd565b61032e61037a366004611ea0565b60009081526005602052604090206001015490565b61032e600c5481565b6103576103a6366004611eb9565b6109f1565b6103576103b9366004611ee5565b610a1b565b604051601281526020016102c4565b60085461032e565b6103576103e3366004611eb9565b610a5c565b6102b86103f6366004611d58565b610ada565b610357610409366004611ea0565b610afc565b61035761041c366004611f37565b610b28565b61032e6000805160206122c883398151915281565b610357610444366004611f61565b610bc8565b610357610457366004611ea0565b610c27565b61035761046a366004611f83565b610c6f565b61032e60145481565b6102f8610ca9565b61032e61048e366004611ce6565b6001600160a01b031660009081526020819052604090205490565b6102f8610d37565b61032e60135481565b6103576104c8366004611f61565b610d44565b61032e600d5481565b61032e600a5481565b6103576104ed366004611ea0565b610d96565b610505610500366004611f61565b611031565b6040516001600160a01b0390911681526020016102c4565b6102b861052b366004611eb9565b611050565b6102f861107b565b610357610546366004611ee5565b61108a565b61032e600081565b6102b8610561366004611d58565b6110be565b6102b8610574366004611d58565b611139565b61032e600b5481565b610357610590366004611ee5565b611147565b61032e600e5481565b61032e6105ac366004611ea0565b611188565b6103576105bf366004611eb9565b61119f565b61032e6105d2366004611f9e565b6111c4565b61032e6000805160206122e883398151915281565b6103576105fa366004611f61565b6111ef565b6102f8611241565b60006001600160e01b03198216635a05180f60e01b148061062c575061062c8261124e565b92915050565b60606003805461064190611fc8565b80601f016020809104026020016040519081016040528092919081815260200182805461066d90611fc8565b80156106ba5780601f1061068f576101008083540402835291602001916106ba565b820191906000526020600020905b81548152906001019060200180831161069d57829003601f168201915b5050505050905090565b6000336106d2818585611283565b5060019392505050565b600754610100900460ff16158080156106fc5750600754600160ff909116105b806107165750303b158015610716575060075460ff166001145b61077e5760405162461bcd60e51b815260206004820152602e60248201527f496e697469616c697a61626c653a20636f6e747261637420697320616c72656160448201526d191e481a5b9a5d1a585b1a5e995960921b60648201526084015b60405180910390fd5b6007805460ff1916600117905580156107a1576007805461ff0019166101001790555b6011546001600160a01b0316156108055760405162461bcd60e51b815260206004820152602260248201527f546f6b656e3a20666163746f7279206973206e6f74207a65726f206164647265604482015261737360f01b6064820152608401610775565b600089116108475760405162461bcd60e51b815260206004820152600f60248201526e0546f6b656e3a20636170206973203608c1b6044820152606401610775565b6001600160a01b0385166000036108a05760405162461bcd60e51b815260206004820152601c60248201527f546f6b656e3a206f776e6572206973207a65726f2061646472657373000000006044820152606401610775565b60118054336001600160a01b03199182161790915560088a90556012805482166001600160a01b0388811691909117909155600f805483168b83161790556010805490921690891617905560176108f8838583612066565b508360000361090a5742601355610910565b60138490555b601354610920906201518061213d565b60145560016009819055600a819055600b819055600c819055600d819055600e5561094c6000876113a7565b6109646000805160206122c8833981519152876113a7565b61097c6000805160206122e8833981519152866113a7565b80156109c2576007805461ff0019169055604051600181527f7f26b83ff96e1f2b6a682f133852f6798a09c465da95921460cefb38474024989060200160405180910390a15b505050505050505050565b6000336109db8582856113b1565b6109e685858561142b565b506001949350505050565b600082815260056020526040902060010154610a0c816114cf565b610a1683836114dc565b505050565b610a336000805160206122e883398151915233611050565b610a4f5760405162461bcd60e51b815260040161077590612150565b6015610a16828483612066565b6001600160a01b0381163314610acc5760405162461bcd60e51b815260206004820152602f60248201527f416363657373436f6e74726f6c3a2063616e206f6e6c792072656e6f756e636560448201526e103937b632b9903337b91039b2b63360891b6064820152608401610775565b610ad682826114fe565b5050565b6000336106d2818585610aed83836111c4565b610af7919061213d565b611283565b610b07600033611050565b610b235760405162461bcd60e51b815260040161077590612150565b601355565b610b406000805160206122c883398151915233611050565b610b9d5760405162461bcd60e51b815260206004820152602860248201527f546f6b656e3a206d7573742068617665206772616e7420776869746520726f6c60448201526719481d1bc81cd95d60c21b6064820152608401610775565b6001600160a01b03919091166000908152601960205260409020805460ff1916911515919091179055565b610be06000805160206122e883398151915233611050565b610bfc5760405162461bcd60e51b815260040161077590612150565b60008111610c1c5760405162461bcd60e51b81526004016107759061219a565b600991909155600a55565b610c3f6000805160206122c883398151915233611050565b610c5b5760405162461bcd60e51b815260040161077590612150565b80601354610c69919061213d565b60145550565b610c7a600033611050565b610c965760405162461bcd60e51b815260040161077590612150565b6018805460ff1916911515919091179055565b60168054610cb690611fc8565b80601f0160208091040260200160405190810160405280929190818152602001828054610ce290611fc8565b8015610d2f5780601f10610d0457610100808354040283529160200191610d2f565b820191906000526020600020905b815481529060010190602001808311610d1257829003601f168201915b505050505081565b60178054610cb690611fc8565b610d4f600033611050565b610d6b5760405162461bcd60e51b815260040161077590612150565b60008111610d8b5760405162461bcd60e51b81526004016107759061219a565b600b91909155600c55565b601354421015610dda5760405162461bcd60e51b815260206004820152600f60248201526e2a37b5b2b71d103737ba1037b832b760891b6044820152606401610775565b60648111610e2a5760405162461bcd60e51b815260206004820181905260248201527f546f6b656e3a20616d6f756e74206d757374206d6f7265207468616e203130306044820152606401610775565b6014544211610ec557601054600c54600b546001600160a01b03909216916379cc6790913391610e669190610e60908790611520565b9061152c565b6040516001600160e01b031960e085901b1681526001600160a01b0390921660048301526024820152604401600060405180830381600087803b158015610eac57600080fd5b505af1158015610ec0573d6000803e3d6000fd5b505050505b600f54601254600a546009546001600160a01b03938416936323b872dd933393911691610ef89190610e60908890611520565b6040516001600160e01b031960e086901b1681526001600160a01b0393841660048201529290911660248301526044820152606401600060405180830381600087803b158015610f4757600080fd5b505af1158015610f5b573d6000803e3d6000fd5b5050600f54601254600e54600d546001600160a01b0393841695506340c10f1994509190921691610f9191610e60908790611520565b6040516001600160e01b031960e085901b1681526001600160a01b0390921660048301526024820152604401600060405180830381600087803b158015610fd757600080fd5b505af1158015610feb573d6000803e3d6000fd5b50505050610ff93382611538565b60405181815233907ff50dd38e54ff60d756c111498c058ab11d7f0de3ea8a045e08313ff844b136f69060200160405180910390a250565b6000828152600660205260408120611049908361159d565b9392505050565b60009182526005602090815260408084206001600160a01b0393909316845291905290205460ff1690565b60606004805461064190611fc8565b611095600033611050565b6110b15760405162461bcd60e51b815260040161077590612150565b6017610a16828483612066565b600033816110cc82866111c4565b90508381101561112c5760405162461bcd60e51b815260206004820152602560248201527f45524332303a2064656372656173656420616c6c6f77616e63652062656c6f77604482015264207a65726f60d81b6064820152608401610775565b6109e68286868403611283565b6000336106d281858561142b565b61115f6000805160206122e883398151915233611050565b61117b5760405162461bcd60e51b815260040161077590612150565b6016610a16828483612066565b600081815260066020526040812061062c906115a9565b6000828152600560205260409020600101546111ba816114cf565b610a1683836114fe565b6001600160a01b03918216600090815260016020908152604080832093909416825291909152205490565b6111fa600033611050565b6112165760405162461bcd60e51b815260040161077590612150565b600081116112365760405162461bcd60e51b81526004016107759061219a565b600d91909155600e55565b60158054610cb690611fc8565b60006001600160e01b03198216637965db0b60e01b148061062c57506301ffc9a760e01b6001600160e01b031983161461062c565b6001600160a01b0383166112e55760405162461bcd60e51b8152602060048201526024808201527f45524332303a20617070726f76652066726f6d20746865207a65726f206164646044820152637265737360e01b6064820152608401610775565b6001600160a01b0382166113465760405162461bcd60e51b815260206004820152602260248201527f45524332303a20617070726f766520746f20746865207a65726f206164647265604482015261737360f01b6064820152608401610775565b6001600160a01b0383811660008181526001602090815260408083209487168084529482529182902085905590518481527f8c5be1e5ebec7d5bd14f71427d1e84f3dd0314c0f7b2291e5b200ac8c7c3b925910160405180910390a3505050565b610ad682826114dc565b60006113bd84846111c4565b9050600019811461142557818110156114185760405162461bcd60e51b815260206004820152601d60248201527f45524332303a20696e73756666696369656e7420616c6c6f77616e63650000006044820152606401610775565b6114258484848403611283565b50505050565b60185460ff16158061145557506001600160a01b03831660009081526019602052604090205460ff165b8061147857506001600160a01b03821660009081526019602052604090205460ff165b6114c45760405162461bcd60e51b815260206004820152601760248201527f546f6b656e3a206e6f74206578697374732077686974650000000000000000006044820152606401610775565b610a168383836115b3565b6114d98133611757565b50565b6114e682826117b0565b6000828152600660205260409020610a169082611836565b611508828261184b565b6000828152600660205260409020610a1690826118b2565b600061104982846121c3565b600061104982846121da565b6008548161154560025490565b61154f919061213d565b11156115935760405162461bcd60e51b8152602060048201526013602482015272151bdad95b8e8818d85c08195e18d959591959606a1b6044820152606401610775565b610ad682826118c7565b60006110498383611986565b600061062c825490565b6001600160a01b0383166116175760405162461bcd60e51b815260206004820152602560248201527f45524332303a207472616e736665722066726f6d20746865207a65726f206164604482015264647265737360d81b6064820152608401610775565b6001600160a01b0382166116795760405162461bcd60e51b815260206004820152602360248201527f45524332303a207472616e7366657220746f20746865207a65726f206164647260448201526265737360e81b6064820152608401610775565b6001600160a01b038316600090815260208190526040902054818110156116f15760405162461bcd60e51b815260206004820152602660248201527f45524332303a207472616e7366657220616d6f756e7420657863656564732062604482015265616c616e636560d01b6064820152608401610775565b6001600160a01b03848116600081815260208181526040808320878703905593871680835291849020805487019055925185815290927fddf252ad1be2c89b69c2b068fc378daa952ba7f163c4a11628f55a4df523b3ef910160405180910390a3611425565b6117618282611050565b610ad65761176e816119b0565b6117798360206119c2565b60405160200161178a9291906121fc565b60408051601f198184030181529082905262461bcd60e51b825261077591600401611d25565b6117ba8282611050565b610ad65760008281526005602090815260408083206001600160a01b03851684529091529020805460ff191660011790556117f23390565b6001600160a01b0316816001600160a01b0316837f2f8788117e7eff1d82e926ec794901d17c78024a50270940304540a733656f0d60405160405180910390a45050565b6000611049836001600160a01b038416611b5e565b6118558282611050565b15610ad65760008281526005602090815260408083206001600160a01b0385168085529252808320805460ff1916905551339285917ff6391f5c32d9c69d2a47ea670b442974b53935d1edc7fd64eb21e047a839171b9190a45050565b6000611049836001600160a01b038416611bad565b6001600160a01b03821661191d5760405162461bcd60e51b815260206004820152601f60248201527f45524332303a206d696e7420746f20746865207a65726f2061646472657373006044820152606401610775565b806002600082825461192f919061213d565b90915550506001600160a01b038216600081815260208181526040808320805486019055518481527fddf252ad1be2c89b69c2b068fc378daa952ba7f163c4a11628f55a4df523b3ef910160405180910390a35050565b600082600001828154811061199d5761199d612271565b9060005260206000200154905092915050565b606061062c6001600160a01b03831660145b606060006119d18360026121c3565b6119dc90600261213d565b67ffffffffffffffff8111156119f4576119f4612002565b6040519080825280601f01601f191660200182016040528015611a1e576020820181803683370190505b509050600360fc1b81600081518110611a3957611a39612271565b60200101906001600160f81b031916908160001a905350600f60fb1b81600181518110611a6857611a68612271565b60200101906001600160f81b031916908160001a9053506000611a8c8460026121c3565b611a9790600161213d565b90505b6001811115611b0f576f181899199a1a9b1b9c1cb0b131b232b360811b85600f1660108110611acb57611acb612271565b1a60f81b828281518110611ae157611ae1612271565b60200101906001600160f81b031916908160001a90535060049490941c93611b0881612287565b9050611a9a565b5083156110495760405162461bcd60e51b815260206004820181905260248201527f537472696e67733a20686578206c656e67746820696e73756666696369656e746044820152606401610775565b6000818152600183016020526040812054611ba55750815460018181018455600084815260208082209093018490558454848252828601909352604090209190915561062c565b50600061062c565b60008181526001830160205260408120548015611c96576000611bd160018361229e565b8554909150600090611be59060019061229e565b9050818114611c4a576000866000018281548110611c0557611c05612271565b9060005260206000200154905080876000018481548110611c2857611c28612271565b6000918252602080832090910192909255918252600188019052604090208390555b8554869080611c5b57611c5b6122b1565b60019003818190600052602060002001600090559055856001016000868152602001908152602001600020600090556001935050505061062c565b600091505061062c565b600060208284031215611cb257600080fd5b81356001600160e01b03198116811461104957600080fd5b80356001600160a01b0381168114611ce157600080fd5b919050565b600060208284031215611cf857600080fd5b61104982611cca565b60005b83811015611d1c578181015183820152602001611d04565b50506000910152565b6020815260008251806020840152611d44816040850160208701611d01565b601f01601f19169190910160400192915050565b60008060408385031215611d6b57600080fd5b611d7483611cca565b946020939093013593505050565b60008083601f840112611d9457600080fd5b50813567ffffffffffffffff811115611dac57600080fd5b602083019150836020828501011115611dc457600080fd5b9250929050565b60008060008060008060008060e0898b031215611de757600080fd5b88359750611df760208a01611cca565b9650611e0560408a01611cca565b9550611e1360608a01611cca565b9450611e2160808a01611cca565b935060a0890135925060c089013567ffffffffffffffff811115611e4457600080fd5b611e508b828c01611d82565b999c989b5096995094979396929594505050565b600080600060608486031215611e7957600080fd5b611e8284611cca565b9250611e9060208501611cca565b9150604084013590509250925092565b600060208284031215611eb257600080fd5b5035919050565b60008060408385031215611ecc57600080fd5b82359150611edc60208401611cca565b90509250929050565b60008060208385031215611ef857600080fd5b823567ffffffffffffffff811115611f0f57600080fd5b611f1b85828601611d82565b90969095509350505050565b80358015158114611ce157600080fd5b60008060408385031215611f4a57600080fd5b611f5383611cca565b9150611edc60208401611f27565b60008060408385031215611f7457600080fd5b50508035926020909101359150565b600060208284031215611f9557600080fd5b61104982611f27565b60008060408385031215611fb157600080fd5b611fba83611cca565b9150611edc60208401611cca565b600181811c90821680611fdc57607f821691505b602082108103611ffc57634e487b7160e01b600052602260045260246000fd5b50919050565b634e487b7160e01b600052604160045260246000fd5b601f821115610a1657600081815260208120601f850160051c8101602086101561203f5750805b601f850160051c820191505b8181101561205e5782815560010161204b565b505050505050565b67ffffffffffffffff83111561207e5761207e612002565b6120928361208c8354611fc8565b83612018565b6000601f8411600181146120c657600085156120ae5750838201355b600019600387901b1c1916600186901b178355612120565b600083815260209020601f19861690835b828110156120f757868501358255602094850194600190920191016120d7565b50868210156121145760001960f88860031b161c19848701351681555b505060018560011b0183555b5050505050565b634e487b7160e01b600052601160045260246000fd5b8082018082111561062c5761062c612127565b6020808252602a908201527f546f6b656e3a206d75737420686176652064656661756c742061646d696e20726040820152691bdb19481d1bc81cd95d60b21b606082015260800190565b6020808252600f908201526e2a37b5b2b71d103130b9b29032b93960891b604082015260600190565b808202811582820484141761062c5761062c612127565b6000826121f757634e487b7160e01b600052601260045260246000fd5b500490565b7f416363657373436f6e74726f6c3a206163636f756e7420000000000000000000815260008351612234816017850160208801611d01565b7001034b99036b4b9b9b4b733903937b6329607d1b6017918401918201528351612265816028840160208801611d01565b01602801949350505050565b634e487b7160e01b600052603260045260246000fd5b60008161229657612296612127565b506000190190565b8181038181111561062c5761062c612127565b634e487b7160e01b600052603160045260246000fdfe4192fafd83ce1d46e48572c4b6576cd077e08f3093e09c25036840c7a750c8d9b19546dff01e856fb3f010c267a7b1c60363cf8a4664e21cc89c26224620214ea26469706673582212207acbe6d4ad019718f40e843a36990cbffbe08ef78a9d12b230d1d0e6ab85488164736f6c63430008130033",
    "sourcePath": "c:/Users/84002/shared_project/contracts_rel/contracts/TokenTemplate.sol",
    "compiler": {
        "name": "solc",
        "version": "0.8.19+commit.7dd6d404"
    },
    "functionHashes": {
        "DEFAULT_ADMIN_ROLE()": "a217fddf",
        "GRANT_WHITE_ROLE()": "47b4aabd",
        "OWNER_ROLE()": "e58378bb",
        "allowance(address,address)": "dd62ed3e",
        "approve(address,uint256)": "095ea7b3",
        "balanceOf(address)": "70a08231",
        "burnSubBase()": "25786501",
        "burnSubRate()": "ab339c18",
        "cap()": "355274ea",
        "decimals()": "313ce567",
        "decreaseAllowance(address,uint256)": "a457c2d7",
        "depositBase()": "bc237e5e",
        "depositRate()": "7e74a1ed",
        "exchangeToken(uint256)": "8f78c311",
        "getRoleAdmin(bytes32)": "248a9ca3",
        "getRoleMember(bytes32,uint256)": "9010d07c",
        "getRoleMemberCount(bytes32)": "ca15c873",
        "grantRole(bytes32,address)": "2f2ff15d",
        "hasRole(bytes32,address)": "91d14854",
        "increaseAllowance(address,uint256)": "39509351",
        "initialize(uint256,address,address,address,address,uint256,string)": "224c2940",
        "logo()": "fb7f21eb",
        "machine()": "75c60225",
        "name()": "06fdde03",
        "nameToken()": "6e311784",
        "priceTokenBase()": "895462e0",
        "priceTokenRate()": "1758a0c4",
        "renounceRole(bytes32,address)": "36568abe",
        "revokeRole(bytes32,address)": "d547741f",
        "setBurnSub(uint256,uint256)": "7909c1cf",
        "setDeposit(uint256,uint256)": "ef8d5259",
        "setLogo(string)": "2fe31962",
        "setMachine(string)": "a08ee9c2",
        "setNameToken(string)": "b3fef721",
        "setPriceToken(uint256,uint256)": "578680be",
        "setStartTime(uint256)": "3e0a322d",
        "setSubEndTime(uint256)": "60efef0e",
        "setWhite(address,bool)": "47240874",
        "setWhiteEnable(bool)": "629765c4",
        "startTime()": "78e97925",
        "subEndTime()": "69a4684d",
        "supportsInterface(bytes4)": "01ffc9a7",
        "symbol()": "95d89b41",
        "totalSupply()": "18160ddd",
        "transfer(address,uint256)": "a9059cbb",
        "transferFrom(address,address,uint256)": "23b872dd",
        "white(address)": "04f5a077",
        "whiteEnable()": "11e4d4ca"
    },
    "gasEstimates": {
        "creation": {
            "codeDepositCost": "1804200",
            "executionCost": "infinite",
            "totalCost": "infinite"
        },
        "external": {
            "DEFAULT_ADMIN_ROLE()": "240",
            "GRANT_WHITE_ROLE()": "infinite",
            "OWNER_ROLE()": "infinite",
            "allowance(address,address)": "infinite",
            "approve(address,uint256)": "24703",
            "balanceOf(address)": "2608",
            "burnSubBase()": "2429",
            "burnSubRate()": "2406",
            "cap()": "2382",
            "decimals()": "245",
            "decreaseAllowance(address,uint256)": "27006",
            "depositBase()": "2450",
            "depositRate()": "2451",
            "exchangeToken(uint256)": "infinite",
            "getRoleAdmin(bytes32)": "2556",
            "getRoleMember(bytes32,uint256)": "infinite",
            "getRoleMemberCount(bytes32)": "infinite",
            "grantRole(bytes32,address)": "infinite",
            "hasRole(bytes32,address)": "2765",
            "increaseAllowance(address,uint256)": "27106",
            "initialize(uint256,address,address,address,address,uint256,string)": "infinite",
            "logo()": "infinite",
            "machine()": "infinite",
            "name()": "infinite",
            "nameToken()": "infinite",
            "priceTokenBase()": "2340",
            "priceTokenRate()": "2452",
            "renounceRole(bytes32,address)": "infinite",
            "revokeRole(bytes32,address)": "infinite",
            "setBurnSub(uint256,uint256)": "46933",
            "setDeposit(uint256,uint256)": "46931",
            "setLogo(string)": "infinite",
            "setMachine(string)": "infinite",
            "setNameToken(string)": "infinite",
            "setPriceToken(uint256,uint256)": "infinite",
            "setStartTime(uint256)": "24797",
            "setSubEndTime(uint256)": "infinite",
            "setWhite(address,bool)": "infinite",
            "setWhiteEnable(bool)": "26979",
            "startTime()": "2407",
            "subEndTime()": "2450",
            "supportsInterface(bytes4)": "infinite",
            "symbol()": "infinite",
            "totalSupply()": "2338",
            "transfer(address,uint256)": "57719",
            "transferFrom(address,address,uint256)": "infinite",
            "white(address)": "2589",
            "whiteEnable()": "2434"
        },
        "internal": {
            "_mint(address,uint256)": "infinite",
            "_transfer(address,address,uint256)": "infinite"
        }
    }
}